{
  "address": "0xE8D73349A788beb9e2CCbd1Ec525991f73ccBCb0",
  "abi": [
    {
      "inputs": [
        {
          "internalType": "address",
          "name": "_shareVault",
          "type": "address"
        }
      ],
      "stateMutability": "nonpayable",
      "type": "constructor"
    },
    {
      "inputs": [],
      "name": "AlreadyCancelled",
      "type": "error"
    },
    {
      "inputs": [],
      "name": "AlreadyClaimed",
      "type": "error"
    },
    {
      "inputs": [],
      "name": "AlreadyFinalized",
      "type": "error"
    },
    {
      "inputs": [],
      "name": "CacheExpired",
      "type": "error"
    },
    {
      "inputs": [],
      "name": "CampaignEnded",
      "type": "error"
    },
    {
      "inputs": [],
      "name": "CampaignNotExist",
      "type": "error"
    },
    {
      "inputs": [],
      "name": "CampaignNotFinalized",
      "type": "error"
    },
    {
      "inputs": [],
      "name": "CampaignStillActive",
      "type": "error"
    },
    {
      "inputs": [],
      "name": "ContributionNotDecrypted",
      "type": "error"
    },
    {
      "inputs": [],
      "name": "ContributionNotFound",
      "type": "error"
    },
    {
      "inputs": [],
      "name": "DataProcessing",
      "type": "error"
    },
    {
      "inputs": [],
      "name": "DecryptAlreadyInProgress",
      "type": "error"
    },
    {
      "inputs": [],
      "name": "EmptyTitle",
      "type": "error"
    },
    {
      "inputs": [],
      "name": "InvalidDuration",
      "type": "error"
    },
    {
      "inputs": [],
      "name": "InvalidKMSSignatures",
      "type": "error"
    },
    {
      "inputs": [],
      "name": "InvalidTarget",
      "type": "error"
    },
    {
      "inputs": [],
      "name": "MyContributionNotDecrypted",
      "type": "error"
    },
    {
      "inputs": [],
      "name": "NoTokensToClaim",
      "type": "error"
    },
    {
      "inputs": [],
      "name": "OnlyOwner",
      "type": "error"
    },
    {
      "inputs": [],
      "name": "TokenNameRequired",
      "type": "error"
    },
    {
      "inputs": [],
      "name": "TokenSymbolRequired",
      "type": "error"
    },
    {
      "inputs": [],
      "name": "TotalRaisedNotDecrypted",
      "type": "error"
    },
    {
      "inputs": [],
      "name": "UnauthorizedAccess",
      "type": "error"
    },
    {
      "inputs": [],
      "name": "ZamaProtocolUnsupported",
      "type": "error"
    },
    {
      "anonymous": false,
      "inputs": [
        {
          "indexed": true,
          "internalType": "uint256",
          "name": "campaignId",
          "type": "uint256"
        }
      ],
      "name": "CampaignCancelled",
      "type": "event"
    },
    {
      "anonymous": false,
      "inputs": [
        {
          "indexed": true,
          "internalType": "uint256",
          "name": "campaignId",
          "type": "uint256"
        },
        {
          "indexed": true,
          "internalType": "address",
          "name": "owner",
          "type": "address"
        },
        {
          "indexed": false,
          "internalType": "string",
          "name": "title",
          "type": "string"
        },
        {
          "indexed": false,
          "internalType": "uint256",
          "name": "targetAmount",
          "type": "uint256"
        },
        {
          "indexed": false,
          "internalType": "uint256",
          "name": "deadline",
          "type": "uint256"
        }
      ],
      "name": "CampaignCreated",
      "type": "event"
    },
    {
      "anonymous": false,
      "inputs": [
        {
          "indexed": true,
          "internalType": "uint16",
          "name": "campaignId",
          "type": "uint16"
        }
      ],
      "name": "CampaignFailed",
      "type": "event"
    },
    {
      "anonymous": false,
      "inputs": [
        {
          "indexed": true,
          "internalType": "uint256",
          "name": "campaignId",
          "type": "uint256"
        },
        {
          "indexed": false,
          "internalType": "bool",
          "name": "targetReached",
          "type": "bool"
        }
      ],
      "name": "CampaignFinalized",
      "type": "event"
    },
    {
      "anonymous": false,
      "inputs": [
        {
          "indexed": true,
          "internalType": "uint256",
          "name": "campaignId",
          "type": "uint256"
        },
        {
          "indexed": true,
          "internalType": "address",
          "name": "contributor",
          "type": "address"
        }
      ],
      "name": "ContributionMade",
      "type": "event"
    },
    {
      "anonymous": false,
      "inputs": [
        {
          "indexed": false,
          "internalType": "bytes32[]",
          "name": "handlesList",
          "type": "bytes32[]"
        },
        {
          "indexed": false,
          "internalType": "bytes",
          "name": "abiEncodedCleartexts",
          "type": "bytes"
        }
      ],
      "name": "PublicDecryptionVerified",
      "type": "event"
    },
    {
      "anonymous": false,
      "inputs": [
        {
          "indexed": true,
          "internalType": "uint256",
          "name": "campaignId",
          "type": "uint256"
        },
        {
          "indexed": true,
          "internalType": "address",
          "name": "contributor",
          "type": "address"
        }
      ],
      "name": "TokensClaimed",
      "type": "event"
    },
    {
      "anonymous": false,
      "inputs": [
        {
          "indexed": true,
          "internalType": "uint16",
          "name": "campaignId",
          "type": "uint16"
        },
        {
          "indexed": true,
          "internalType": "address",
          "name": "contributor",
          "type": "address"
        },
        {
          "indexed": false,
          "internalType": "uint256",
          "name": "amount",
          "type": "uint256"
        }
      ],
      "name": "TokensDistributed",
      "type": "event"
    },
    {
      "inputs": [],
      "name": "CACHE_TIMEOUT",
      "outputs": [
        {
          "internalType": "uint256",
          "name": "",
          "type": "uint256"
        }
      ],
      "stateMutability": "view",
      "type": "function"
    },
    {
      "inputs": [
        {
          "internalType": "uint256",
          "name": "requestId",
          "type": "uint256"
        },
        {
          "internalType": "bytes",
          "name": "cleartexts",
          "type": "bytes"
        },
        {
          "internalType": "bytes",
          "name": "decryptionProof",
          "type": "bytes"
        }
      ],
      "name": "callbackDecryptAvailableBalance",
      "outputs": [],
      "stateMutability": "nonpayable",
      "type": "function"
    },
    {
      "inputs": [
        {
          "internalType": "uint256",
          "name": "requestId",
          "type": "uint256"
        },
        {
          "internalType": "bytes",
          "name": "cleartexts",
          "type": "bytes"
        },
        {
          "internalType": "bytes",
          "name": "decryptionProof",
          "type": "bytes"
        }
      ],
      "name": "callbackDecryptMyContribution",
      "outputs": [],
      "stateMutability": "nonpayable",
      "type": "function"
    },
    {
      "inputs": [
        {
          "internalType": "uint256",
          "name": "requestId",
          "type": "uint256"
        },
        {
          "internalType": "bytes",
          "name": "cleartexts",
          "type": "bytes"
        },
        {
          "internalType": "bytes",
          "name": "decryptionProof",
          "type": "bytes"
        }
      ],
      "name": "callbackDecryptTotalRaised",
      "outputs": [],
      "stateMutability": "nonpayable",
      "type": "function"
    },
    {
      "inputs": [],
      "name": "campaignContract",
      "outputs": [
        {
          "internalType": "address",
          "name": "",
          "type": "address"
        }
      ],
      "stateMutability": "view",
      "type": "function"
    },
    {
      "inputs": [],
      "name": "campaignCount",
      "outputs": [
        {
          "internalType": "uint16",
          "name": "",
          "type": "uint16"
        }
      ],
      "stateMutability": "view",
      "type": "function"
    },
    {
      "inputs": [
        {
          "internalType": "uint16",
          "name": "",
          "type": "uint16"
        }
      ],
      "name": "campaigns",
      "outputs": [
        {
          "internalType": "address",
          "name": "owner",
          "type": "address"
        },
        {
          "internalType": "string",
          "name": "title",
          "type": "string"
        },
        {
          "internalType": "string",
          "name": "description",
          "type": "string"
        },
        {
          "internalType": "euint64",
          "name": "totalRaised",
          "type": "bytes32"
        },
        {
          "internalType": "uint64",
          "name": "targetAmount",
          "type": "uint64"
        },
        {
          "internalType": "uint256",
          "name": "deadline",
          "type": "uint256"
        },
        {
          "internalType": "bool",
          "name": "finalized",
          "type": "bool"
        },
        {
          "internalType": "bool",
          "name": "cancelled",
          "type": "bool"
        },
        {
          "internalType": "address",
          "name": "tokenAddress",
          "type": "address"
        }
      ],
      "stateMutability": "view",
      "type": "function"
    },
    {
      "inputs": [
        {
          "internalType": "uint16",
          "name": "campaignId",
          "type": "uint16"
        }
      ],
      "name": "cancelCampaign",
      "outputs": [],
      "stateMutability": "nonpayable",
      "type": "function"
    },
    {
      "inputs": [
        {
          "internalType": "uint16",
          "name": "campaignId",
          "type": "uint16"
        }
      ],
      "name": "claimTokens",
      "outputs": [],
      "stateMutability": "nonpayable",
      "type": "function"
    },
    {
      "inputs": [],
      "name": "confidentialProtocolId",
      "outputs": [
        {
          "internalType": "uint256",
          "name": "",
          "type": "uint256"
        }
      ],
      "stateMutability": "view",
      "type": "function"
    },
    {
      "inputs": [
        {
          "internalType": "uint16",
          "name": "campaignId",
          "type": "uint16"
        },
        {
          "internalType": "externalEuint64",
          "name": "encryptedAmount",
          "type": "bytes32"
        },
        {
          "internalType": "bytes",
          "name": "inputProof",
          "type": "bytes"
        }
      ],
      "name": "contribute",
      "outputs": [],
      "stateMutability": "nonpayable",
      "type": "function"
    },
    {
      "inputs": [
        {
          "internalType": "string",
          "name": "title",
          "type": "string"
        },
        {
          "internalType": "string",
          "name": "description",
          "type": "string"
        },
        {
          "internalType": "uint64",
          "name": "target",
          "type": "uint64"
        },
        {
          "internalType": "uint256",
          "name": "duration",
          "type": "uint256"
        }
      ],
      "name": "createCampaign",
      "outputs": [
        {
          "internalType": "uint256",
          "name": "",
          "type": "uint256"
        }
      ],
      "stateMutability": "nonpayable",
      "type": "function"
    },
    {
      "inputs": [
        {
          "internalType": "uint16",
          "name": "campaignId",
          "type": "uint16"
        },
        {
          "internalType": "string",
          "name": "tokenName",
          "type": "string"
        },
        {
          "internalType": "string",
          "name": "tokenSymbol",
          "type": "string"
        }
      ],
      "name": "finalizeCampaign",
      "outputs": [],
      "stateMutability": "nonpayable",
      "type": "function"
    },
    {
      "inputs": [
        {
          "internalType": "uint16",
          "name": "campaignId",
          "type": "uint16"
        }
      ],
      "name": "getCampaign",
      "outputs": [
        {
          "internalType": "address",
          "name": "owner",
          "type": "address"
        },
        {
          "internalType": "string",
          "name": "title",
          "type": "string"
        },
        {
          "internalType": "string",
          "name": "description",
          "type": "string"
        },
        {
          "internalType": "uint64",
          "name": "targetAmount",
          "type": "uint64"
        },
        {
          "internalType": "uint256",
          "name": "deadline",
          "type": "uint256"
        },
        {
          "internalType": "bool",
          "name": "finalized",
          "type": "bool"
        },
        {
          "internalType": "bool",
          "name": "cancelled",
          "type": "bool"
        },
        {
          "internalType": "address",
          "name": "tokenAddress",
          "type": "address"
        }
      ],
      "stateMutability": "view",
      "type": "function"
    },
    {
      "inputs": [
        {
          "internalType": "uint16",
          "name": "campaignId",
          "type": "uint16"
        }
      ],
      "name": "getCampaignContributors",
      "outputs": [
        {
          "internalType": "address[]",
          "name": "",
          "type": "address[]"
        }
      ],
      "stateMutability": "view",
      "type": "function"
    },
    {
      "inputs": [
        {
          "internalType": "uint16",
          "name": "campaignId",
          "type": "uint16"
        },
        {
          "internalType": "address",
          "name": "user",
          "type": "address"
        }
      ],
      "name": "getContributionStatus",
      "outputs": [
        {
          "internalType": "enum CommonStruct.DecryptStatus",
          "name": "status",
          "type": "uint8"
        },
        {
          "internalType": "uint64",
          "name": "contribution",
          "type": "uint64"
        },
        {
          "internalType": "uint256",
          "name": "cacheExpiry",
          "type": "uint256"
        }
      ],
      "stateMutability": "view",
      "type": "function"
    },
    {
      "inputs": [
        {
          "internalType": "uint16",
          "name": "campaignId",
          "type": "uint16"
        },
        {
          "internalType": "address",
          "name": "user",
          "type": "address"
        }
      ],
      "name": "getEncryptedContribution",
      "outputs": [
        {
          "internalType": "euint64",
          "name": "",
          "type": "bytes32"
        }
      ],
      "stateMutability": "view",
      "type": "function"
    },
    {
      "inputs": [
        {
          "internalType": "uint16",
          "name": "campaignId",
          "type": "uint16"
        }
      ],
      "name": "getEncryptedTotalRaised",
      "outputs": [
        {
          "internalType": "euint64",
          "name": "",
          "type": "bytes32"
        }
      ],
      "stateMutability": "view",
      "type": "function"
    },
    {
      "inputs": [
        {
          "internalType": "uint16",
          "name": "campaignId",
          "type": "uint16"
        }
      ],
      "name": "getMyContribution",
      "outputs": [
        {
          "internalType": "uint64",
          "name": "",
          "type": "uint64"
        }
      ],
      "stateMutability": "view",
      "type": "function"
    },
    {
      "inputs": [
        {
          "internalType": "uint16",
          "name": "campaignId",
          "type": "uint16"
        }
      ],
      "name": "getTotalRaised",
      "outputs": [
        {
          "internalType": "uint64",
          "name": "",
          "type": "uint64"
        }
      ],
      "stateMutability": "view",
      "type": "function"
    },
    {
      "inputs": [
        {
          "internalType": "uint16",
          "name": "campaignId",
          "type": "uint16"
        }
      ],
      "name": "getTotalRaisedStatus",
      "outputs": [
        {
          "internalType": "enum CommonStruct.DecryptStatus",
          "name": "status",
          "type": "uint8"
        },
        {
          "internalType": "uint64",
          "name": "totalRaised",
          "type": "uint64"
        },
        {
          "internalType": "uint256",
          "name": "cacheExpiry",
          "type": "uint256"
        }
      ],
      "stateMutability": "view",
      "type": "function"
    },
    {
      "inputs": [
        {
          "internalType": "uint16",
          "name": "",
          "type": "uint16"
        },
        {
          "internalType": "address",
          "name": "",
          "type": "address"
        }
      ],
      "name": "hasClaimed",
      "outputs": [
        {
          "internalType": "bool",
          "name": "",
          "type": "bool"
        }
      ],
      "stateMutability": "view",
      "type": "function"
    },
    {
      "inputs": [
        {
          "internalType": "uint16",
          "name": "",
          "type": "uint16"
        },
        {
          "internalType": "address",
          "name": "",
          "type": "address"
        }
      ],
      "name": "hasClaimedTokens",
      "outputs": [
        {
          "internalType": "bool",
          "name": "",
          "type": "bool"
        }
      ],
      "stateMutability": "view",
      "type": "function"
    },
    {
      "inputs": [
        {
          "internalType": "uint16",
          "name": "campaignId",
          "type": "uint16"
        },
        {
          "internalType": "address",
          "name": "user",
          "type": "address"
        }
      ],
      "name": "hasContribution",
      "outputs": [
        {
          "internalType": "bool",
          "name": "",
          "type": "bool"
        }
      ],
      "stateMutability": "view",
      "type": "function"
    },
    {
      "inputs": [
        {
          "internalType": "uint16",
          "name": "campaignId",
          "type": "uint16"
        }
      ],
      "name": "requestMyContributionDecryption",
      "outputs": [],
      "stateMutability": "nonpayable",
      "type": "function"
    },
    {
      "inputs": [
        {
          "internalType": "uint16",
          "name": "campaignId",
          "type": "uint16"
        }
      ],
      "name": "requestTotalRaisedDecryption",
      "outputs": [],
      "stateMutability": "nonpayable",
      "type": "function"
    },
    {
      "inputs": [],
      "name": "shareVault",
      "outputs": [
        {
          "internalType": "contract ShareVault",
          "name": "",
          "type": "address"
        }
      ],
      "stateMutability": "view",
      "type": "function"
    },
    {
      "inputs": [
        {
          "internalType": "uint16",
          "name": "campaignId",
          "type": "uint16"
        },
        {
          "internalType": "uint64",
          "name": "cleartextAmount",
          "type": "uint64"
        },
        {
          "internalType": "bytes",
          "name": "proof",
          "type": "bytes"
        }
      ],
      "name": "submitMyContributionDecryption",
      "outputs": [],
      "stateMutability": "nonpayable",
      "type": "function"
    },
    {
      "inputs": [
        {
          "internalType": "uint16",
          "name": "campaignId",
          "type": "uint16"
        },
        {
          "internalType": "uint64",
          "name": "cleartextTotal",
          "type": "uint64"
        },
        {
          "internalType": "bytes",
          "name": "proof",
          "type": "bytes"
        }
      ],
      "name": "submitTotalRaisedDecryption",
      "outputs": [],
      "stateMutability": "nonpayable",
      "type": "function"
    }
  ],
  "transactionHash": "0x858cdd254582fbdd48437285fbeeb023de19320cbe4042cc4d0b3698f0819168",
  "args": [
    "0xc4102208Ff370B5fAcB043398d6B5f9f927EBa33"
  ],
  "numDeployments": 3,
  "solcInputHash": "3cae96dede49e51bc6337025c722462a",
  "bytecode": "0x60a0346200025b57601f62003afc38819003918201601f191683019291906001600160401b038411838510176200025f5781602092849260409687528339810103126200025b57516001600160a01b03808216918290036200025b576200006562000293565b504660010362000169576200007962000293565b506200008462000273565b5f81525f60208201525f84820152905b83818351169260018060a01b0319937f9e7b61f58c47dc699ac88507c4f5bb9f121c03808c5676a8078fe583e46497009085825416179055826020820151167f9e7b61f58c47dc699ac88507c4f5bb9f121c03808c5676a8078fe583e464970190858254161790550151167f9e7b61f58c47dc699ac88507c4f5bb9f121c03808c5676a8078fe583e4649702918254161790556102585f556080525161384c9081620002b08239608051818181610446015281816105fd0152818161097f0152818161139001528181611a6901526120790152f35b4662aa36a703620001da576200017e62000293565b506200018962000273565b73f0ffdc93b7e186bc2f8cb3daa75d86d1930a433d81527392c920834ec8941d2c77d188936e1f7a6f49c127602082015273be0e383937d564d7ff0bc3b46c51f0bf8d5c311a848201529062000094565b46617a69036200024a57620001ee62000293565b50620001f962000273565b7350157cffd6bbfa2dece204a89ec419c23ef5755d815273e3a9105a3a932253a70f126eb1e3b589c643dd24602082015273901f8942346f7ab3a01f6d7613119bca447bb030848201529062000094565b82516373cac13b60e01b8152600490fd5b5f80fd5b634e487b7160e01b5f52604160045260245ffd5b60405190606082016001600160401b038111838210176200025f57604052565b6200029d62000273565b905f82525f60208301525f604083015256fe608080604052600436101562000013575f80fd5b5f905f3560e01c9081630172cb2314620020a8575080630794bf5614620020615780630d814fd81462001f295780631b02535a1462001ddb5780631ed339981462001cfc5780633ccc136314620018eb578063420086f014620018aa5780634599b73d14620017e557806358ae05cd14620017ba57806369f86701146200166f5780637274e30d146200164b578063799d4055146200109b5780638927b03014620010745780638e2d7d1f1462000fab57806392ec4c161462000ec95780639577712b1462000c9e57806399d7cf011462000c3057806399f5e9341462000bcc5780639c9da1bf1462000b38578063a327d9b11462000af4578063b2b867ac1462000ad5578063ba0ab9831462000a91578063be521cc414620008b4578063c10046c31462000841578063c944f0c81462000817578063cb4869ed14620007a6578063e93880de146200022c578063f240fcca14620001bc5763feea8dd5146200017b575f80fd5b34620001b957604061ffff9162000192366200243e565b931681526003602052209060018060a01b03165f52602052602060405f2054604051908152f35b80fd5b5034620001b9576020366003190112620001b957620001da62002200565b61ffff8116825260016020526040909120546001600160a01b031633036200021a57620002096020916200267f565b6001600160401b0360405191168152f35b604051635fc483c560e01b8152600490fd5b5034620001b9576060366003190112620001b9576200024a62002200565b6024356001600160401b038111620006b6576200026c90369060040162002212565b91906044356001600160401b038111620007a2576200029090369060040162002212565b61ffff8416865260016020526040862054909491906001600160a01b031633036200021a5761ffff841686526001602052604086209461ffff600a541661ffff861610156200079057600586015442106200077e57600686015460ff81166200076c5760ff8160081c166200075a5761ffff86168852600560205260408820906040516200031e81620022f5565b602060016001600160401b038554169485845201549101528115620007485760ff1916600117600688015560048701546001600160401b031611620005b3578215620005a1578015620005905760405193610da093848601948686106001600160401b038711176200057c5786959492620003bd9492620003ae9262002a578939608087526080870191620025ac565b918483036020860152620025ac565b9061ffff85166040820152606030910152039084f08015620005175760068301805462010000600160b01b03191660109290921b62010000600160b01b031691909117905561ffff81168352600b602052604083209160405192836020825491828152019186526020862090865b8181106200055c5750505083620004449103846200232e565b7f00000000000000000000000000000000000000000000000000000000000000006001600160a01b03169084805b855181101562000522576001600160a01b0362000490828862002575565b51845460405163f3478ab960e01b81529290911660048301526001600160a01b0316602482015261ffff8616604482015260208160648186895af180156200051757620004e2575b5060010162000472565b602090813d83116200050f575b620004fb81836200232e565b810103126200050b575f620004d8565b5080fd5b503d620004ef565b6040513d85823e3d90fd5b5050505090507f153ed4c9c4475018e4899faf78c3171cc7869a9c53a2d247de2ff74377eba788602061ffff60405193600185521692a280f35b82546001600160a01b03168452602090930192600192830192016200042b565b634e487b7160e01b8a52604160045260248afd5b60405162fa74bb60e31b8152600490fd5b604051636c10a0b560e01b8152600490fd5b50505050905061ffff81168252600b602052604082209060405191826020825491828152019185526020852090855b818110620007285750505082620005fb9103836200232e565b7f00000000000000000000000000000000000000000000000000000000000000006001600160a01b0316908390815b8451811015620006c9576001600160a01b0362000648828762002575565b5116843b15620006c557604051637709c16360e01b81526001600160a01b0391909116600482015261ffff83166024820152838160448183895af1908115620006ba5784916200069e575b50506001016200062a565b620006a990620022cd565b620006b657825f62000693565b8280fd5b6040513d86823e3d90fd5b8380fd5b50925050507f153ed4c9c4475018e4899faf78c3171cc7869a9c53a2d247de2ff74377eba788602061ffff604051938181167fcf1928565f607ef526d914dbb4a3c4bf677f5258701d2a94f95df06bcbb451778780a28585521692a280f35b82546001600160a01b0316845260209093019260019283019201620005e2565b60405163185d0ec560e31b8152600490fd5b6040516354e3762560e01b8152600490fd5b60405163475a253560e01b8152600490fd5b604051634e5b565b60e11b8152600490fd5b604051635fed7b5d60e11b8152600490fd5b8480fd5b5034620001b957620007b836620024dc565b505060405162461bcd60e51b815260206004820152602e60248201527f444550524543415445443a20557365207375626d69744d79436f6e747269627560448201526d3a34b7b72232b1b93cb83a34b7b760911b606482015260849150fd5b5034620001b9576020366003190112620001b9576020620002096200083b62002200565b620025cc565b5034620001b9576200085336620024dc565b505060405162461bcd60e51b815260206004820152603060248201527f444550524543415445443a20557365207375626d6974417661696c61626c654260448201526f30b630b731b2a232b1b93cb83a34b7b760811b606482015260849150fd5b5034620001b9576020806003193601126200050b57620008d362002200565b9061ffff908183169283855260019283835260018060a01b03908160408820541633036200021a578587528484526040872090600a54168610156200079057600601805460ff81166200076c5760ff8160081c166200075a579061010086939261ff001916179055858752600b84526040872060405190819586928183549182815201928b52818b20918b905b82821062000a735750505050906200097a9103856200232e565b8693817f000000000000000000000000000000000000000000000000000000000000000016925b620009d0575b87877f403b6718db13878ac16c27decb08f09d3a10f116c7c25af575ff5bfbc11ae9e68280a280f35b805185101562000a6d5781620009e7868362002575565b51169488843b15620001b957604051637709c16360e01b81526001600160a01b0397909716600488015261ffff86166024880152808760448183895af196871562000a6057889762000a3f575b5050850194620009a1565b62000a4d91929750620022cd565b62000a5c578594885f62000a34565b8780fd5b50604051903d90823e3d90fd5b620009a7565b8354871685528a978a96509481019493840193919091019062000960565b5034620001b957604061ffff9162000aa9366200243e565b93168152600d602052209060018060a01b03165f52602052602060ff60405f2054166040519015158152f35b5034620001b95780600319360112620001b95760206040516102588152f35b5034620001b957604061ffff9162000b0c366200243e565b931681526002602052209060018060a01b03165f52602052602060ff60405f2054166040519015158152f35b5034620001b9576020366003190112620001b95761ffff62000b5962002200565b16808252600160205260408220546001600160a01b031633036200021a5781526007602052604060ff8183205416916005602052209062000bc8602060405162000ba381620022f5565b60016001600160401b0386541695868352015491829101526040519384938462002529565b0390f35b5034620001b95761ffff604062000be3366200243e565b92169283815260096020528181209260018060a01b031692835f5260205260ff825f205416938152600460205220905f5260205260405f209062000bc8602060405162000ba381620022f5565b5034620001b95762000c4236620024dc565b505060405162461bcd60e51b815260206004820152602b60248201527f444550524543415445443a20557365207375626d6974546f74616c526169736560448201526a322232b1b93cb83a34b7b760a91b606482015260849150fd5b5034620001b9576020806003193601126200050b5761ffff908162000cc262002200565b1690818452600181526040842092600a54168210156200079057600683015460ff81161562000eb75760101c6001600160a01b031692831562000ea6578285526002825260408520335f52825260ff60405f20541662000e94578285526004825260408520335f52825260405f20906040519062000d4082620022f5565b6001600160401b039184600184865416958684520154910152821562000e82576b033b2e3c9fd0803ce80000008084029384040362000e6e57600401541690811562000e5a5704928490803b156200050b578180916044604051809481936340c10f1960e01b83523360048401528a60248401525af1801562000e4f5762000e37575b5090827fa497a47ea32e00b22e9180ad6c101d0eeb8d6f79eb0b1e3d0edf1048b241d8ae92526002815260408520335f52815260405f20600160ff198254161790556040519333847f83017964d41e2eb3369a74f93ce7024dc09d85d2bfa35ca86268234733b965908880a384523393a380f35b62000e4290620022cd565b620006c557835f62000dc3565b6040513d84823e3d90fd5b634e487b7160e01b86526012600452602486fd5b634e487b7160e01b87526011600452602487fd5b60405163945b686560e01b8152600490fd5b604051630c8d9eab60e31b8152600490fd5b60405162f3f86160e41b8152600490fd5b60405163e07f7ab360e01b8152600490fd5b5034620001b9576020366003190112620001b95762000ee762002200565b9061ffff80600a54169216918210156200079057604091815260016020522060018060a01b0380825416906001600160401b0360048401541690600584015460068501549062000f7a62000f4c600262000f4460018a0162002350565b980162002350565b62000f6b604051988998610100908a528060208b0152890190620023fe565b908782036040890152620023fe565b936060860152608085015260ff8116151560a085015260ff8160081c16151560c085015260101c1660e08301520390f35b5034620001b9576020366003190112620001b957604060209161ffff62000fd162002200565b168152600183522060405162000fe78162002311565b81546001600160a01b03908116825261010090620010086001850162002350565b858401526200101a6002850162002350565b604084015260066003850154948560608601526001600160401b036004820154166080860152600581015460a0860152015460ff8116151560c085015260ff8160081c16151560e085015260101c16910152604051908152f35b5034620001b95780600319360112620001b9576020620010936200294f565b604051908152f35b5034620001b9576080366003190112620001b9576004356001600160401b0381116200050b57620010d190369060040162002212565b91906024356001600160401b038111620006b657620010f590369060040162002212565b939091604435906001600160401b038216820362001647576001600160401b03821615620016355760643515620016235782156200161157600a549461ffff948580881614620015fd5761ffff198716878716600101871617600a556200115b620029ee565b6200119a6200116d606435426200258a565b926040519a6200117d8c62002311565b338c526200118d368a8962002472565b60208d0152369162002472565b60408a015260608901526001600160401b038416608089015260a08801528060c08801528060e08801528061010088015284861681526001602052604081209660018060a01b038151166bffffffffffffffffffffffff60a01b89541617885560208101518051906001600160401b038211620015155781906200122260018c015462002292565b601f8111620015a8575b50602090601f83116001146200153557859262001529575b50508160011b915f199060031b1c19161760018901555b60408101519788516001600160401b038111620015155762001281600283015462002292565b601f8111620014cc575b506020998a90601f8311600114620014505792828695936006936200135b96620013d7999262001444575b50508160011b915f199060031b1c19161760028201555b60608301516003820155608083015160048201805467ffffffffffffffff19166001600160401b039290921691909117905560a0830151600582015560c08301519101805460e0840151610100909401516001600160b01b031990911660ff931515939093169290921792151560081b61ff00169290921760109190911b62010000600160b01b0316179055565b858716815260018852620013786003604083200154309062002981565b8686168152600188526040812060030154620013bf907f00000000000000000000000000000000000000000000000000000000000000006001600160a01b03169062002981565b85871681526001885260036040339220015462002981565b6001600160401b0362001405620013f1606435426200258a565b9260405195606087526060870191620025ac565b92168684015260408301527fdc26653af5b99b2da33e2ad69ee6600d9aeccc82b034501db4338309615ca238339280858716930390a360405191168152f35b015190505f80620012b6565b906002840186528b862091865b601f1985168110620014b45750836006936200135b9693600193620013d79a9997601f198116106200149b575b505050811b016002820155620012cd565b01515f1960f88460031b161c191690555f80806200148a565b91928d6001819286850151815501940192016200145d565b60028301855260208520601f830160051c8101602084106200150d575b601f830160051c82018110620015015750506200128b565b868155600101620014e9565b5080620014e9565b634e487b7160e01b84526041600452602484fd5b015190505f8062001244565b925060018b018552602085209085935b601f19841685106200158c576001945083601f1981161062001573575b505050811b0160018901556200125b565b01515f1960f88460031b161c191690555f808062001562565b8181015183556020948501946001909301929091019062001545565b90915060018b01855260208520601f840160051c810160208510620015f5575b90849392915b601f830160051c82018110620015e65750506200122c565b878155859450600101620015ce565b5080620015c8565b634e487b7160e01b82526011600452602482fd5b6040516352ddcdef60e11b8152600490fd5b604051637616640160e01b8152600490fd5b60405163416aebb560e11b8152600490fd5b5f80fd5b5034620001b95780600319360112620001b957602061ffff600a5416604051908152f35b5034620001b95761ffff620016843662002242565b9193909216918285526020926001845260018060a01b0360408720541633036200021a578086526007845260ff6040872054166003811015620017a65760010362001794576007946200173c6001938389528487526040892090600360405192620016ef84620022f5565b8784528936818601370154620017058362002553565b5262001735604051916001600160401b0380961698898b8501528a84526200172d84620022f5565b369162002472565b9162002727565b620017498754426200258a565b91604051946200175986620022f5565b8552858501928352875260058552604087209351166001600160401b0319845416178355519101555260408120600260ff1982541617905580f35b604051637299cb1960e01b8152600490fd5b634e487b7160e01b87526021600452602487fd5b5034620001b95780600319360112620001b9576015546040516001600160a01b039091168152602090f35b5034620001b9576020806003193601126200050b5761ffff6200180762002200565b168252600b81526040822060405192838383549182815201908193835284832090835b8181106200188c5750505084620018439103856200232e565b60405193838594850191818652518092526040850193925b8281106200186b57505050500390f35b83516001600160a01b0316855286955093810193928101926001016200185b565b82546001600160a01b0316845292860192600192830192016200182a565b5034620001b957604061ffff91620018c2366200243e565b931681526003602052209060018060a01b03165f52602052602060405f20541515604051908152f35b5034620001b9576060366003190112620001b9576200190962002200565b906044356001600160401b0381116200050b576200192c90369060040162002212565b929061ffff80921691828452602094600186526040852091600a541684101562000790576005820154421162001cea57600682015460ff81166200076c5760081c60ff166200075a5784926200198491369162002472565b9085620019ea60018060a01b0393847f9e7b61f58c47dc699ac88507c4f5bb9f121c03808c5676a8078fe583e464970154169060405196878094819363045fc19560e11b83526024356004840152336024840152608060448401526084830190620023fe565b6005606483015203925af192831562001cdf57859362001caa575b50815f80516020620037f78339815191525416803b1562001c7857604051630f8e573b60e21b8152600481018590523360248201529086908290604490829084905af1801562001c9f5790869162001c87575b505062001a66308462002981565b817f0000000000000000000000000000000000000000000000000000000000000000169562001a96878562002981565b863b1562001c78576040516341194a5d60e11b81523360048201528560248201528460448201528681606481838c5af1801562001c7c5790879162001c60575b50859052600c815260408620335f52815260ff60405f2054161562001bcb575b859662001b6962001b90928762001b999899526003815260408a20335f52815260405f2054878115155f1462001bc25762001b31916200287a565b905b898b526003815260408b2090335f52528060405f205562001b55308262002981565b62001b61838262002981565b339062002981565b62001b7a600384019586546200287a565b80955562001b89308662002981565b8462002981565b54169062002981565b33907f307c1c8dcf9e5e0b374f6c475ff7c473dd02a9248096afa14405976e4ea1eb6a8380a380f35b90509062001b33565b848652600b8152604086208054906801000000000000000082101562001c4c576001820180825582101562001c385787528187200180546001600160a01b03191633908117909155858752600c825260408088205f92835283529020805460ff1916600117905562001af6565b634e487b7160e01b88526032600452602488fd5b634e487b7160e01b88526041600452602488fd5b62001c6b90620022cd565b62001c7857855f62001ad6565b8580fd5b6040513d89823e3d90fd5b62001c9290620022cd565b620007a257845f62001a58565b6040513d88823e3d90fd5b9092508581813d831162001cd7575b62001cc581836200232e565b81010312620016475751915f62001a05565b503d62001cb9565b6040513d87823e3d90fd5b60405163154eb81560e21b8152600490fd5b5034620001b9576020366003190112620001b95760409061ffff62001d2062002200565b16815260016020522060018060a01b0390818154169062001d446001820162002350565b9262001d536002830162002350565b6003830154926001600160401b0360048201541662001da4600660058401549301549362001d95604051998a99610120908b528060208c01528a0190620023fe565b9088820360408a0152620023fe565b946060870152608086015260a085015260ff8116151560c085015260ff8160081c16151560e085015260101c166101008301520390f35b5034620001b95761ffff62001df03662002242565b9193909216918285526020936003855260408620335f52855260405f205491821562001f17578487526009865260408720335f52865260ff60405f205416600381101562001f0357600103620017945760019262001e93916040519162001e5783620022f5565b85835288368185013762001e6b8362002553565b5262001735604051916001600160401b0380961697888b8501528a84526200172d84620022f5565b62001ea08654426200258a565b906040519362001eb085620022f5565b84528584019182528487526004865260408720335f52865260405f209351166001600160401b0319845416178355519101558252600981526040822090335f525260405f20600260ff1982541617905580f35b634e487b7160e01b88526021600452602488fd5b604051631b5b864160e11b8152600490fd5b5034620001b9576020806003193601126200050b5761ffff62001f4b62002200565b168083526001825260408320549091906001600160a01b0390811633036200021a578284526007825260ff60408520541660038110156200204d5760011462001794578390838252600183526003604083200154906040519162001faf83620022f5565b6001835284368185013762001fc48362002553565b525f80516020620037f78339815191525416803b15620006b6576200200b8392918392604051948580948193637d6e912360e11b83528a60048401526024830190620026f2565b03925af1801562000e4f5762002035575b5091600792525260408120600160ff1982541617905580f35b6200204090620022cd565b620006b657825f6200201c565b634e487b7160e01b85526021600452602485fd5b5034620001b95780600319360112620001b9576040517f00000000000000000000000000000000000000000000000000000000000000006001600160a01b03168152602090f35b905034620016475760209081600319360112620016475761ffff620020cc62002200565b1690815f526003835260405f20335f52835260405f2054908115620021f15750815f526009835260405f20335f52835260ff60405f2054166003811015620021dd576001146200179457604051906200212582620022f5565b600182528336818401376200213a8262002553565b525f80516020620037f7833981519152546001600160a01b0316803b156200164757620021895f92918392604051948580948193637d6e912360e11b83528a60048401526024830190620026f2565b03925af18015620021d257620021bc575b508252600981526040822090335f525260405f20600160ff1982541617905580f35b620021c9919350620022cd565b5f915f6200219a565b6040513d5f823e3d90fd5b634e487b7160e01b5f52602160045260245ffd5b631b5b864160e11b8152600490fd5b6004359061ffff821682036200164757565b9181601f8401121562001647578235916001600160401b0383116200164757602083818601950101116200164757565b6060600319820112620016475760043561ffff811681036200164757916001600160401b03602435818116810362001647579260443591821162001647576200228e9160040162002212565b9091565b90600182811c92168015620022c2575b6020831014620022ae57565b634e487b7160e01b5f52602260045260245ffd5b91607f1691620022a2565b6001600160401b038111620022e157604052565b634e487b7160e01b5f52604160045260245ffd5b604081019081106001600160401b03821117620022e157604052565b61012081019081106001600160401b03821117620022e157604052565b90601f801991011681019081106001600160401b03821117620022e157604052565b9060405191825f8254620023648162002292565b908184526020946001916001811690815f14620023da575060011462002398575b50505062002396925003836200232e565b565b5f90815285812095935091905b818310620023c15750506200239693508201015f808062002385565b85548884018501529485019487945091830191620023a5565b925050506200239694925060ff191682840152151560051b8201015f808062002385565b91908251928382525f5b84811062002429575050825f602080949584010152601f8019910116010190565b60208183018101518483018201520162002408565b6040906003190112620016475760043561ffff811681036200164757906024356001600160a01b0381168103620016475790565b9291926001600160401b038211620022e157604051916200249e601f8201601f1916602001846200232e565b82948184528183011162001647578281602093845f960137010152565b9080601f830112156200164757816020620024d99335910162002472565b90565b60606003198201126200164757600435916001600160401b036024358181116200164757836200250f91600401620024bb565b926044359182116200164757620024d991600401620024bb565b60608101949392916003811015620021dd576040926001600160401b039183521660208201520152565b805115620025615760200190565b634e487b7160e01b5f52603260045260245ffd5b8051821015620025615760209160051b010190565b919082018092116200259857565b634e487b7160e01b5f52601160045260245ffd5b908060209392818452848401375f828201840152601f01601f1916010190565b61ffff16805f526004602052604091825f20335f52602052825f2060208451620025f681620022f5565b60016001600160401b038454169384835201549182910152816200265e575050505f526009602052805f20335f5260205260ff815f205416906003821015620021dd5760016004921462002651575163c1d7282560e01b8152fd5b5163030e317160e41b8152fd5b90925092909242116200266f575090565b5163160bc13d60e01b8152600490fd5b61ffff16805f526005602052604091825f2060208451620026a081620022f5565b60016001600160401b038454169384835201549182910152816200265e575050505f52600760205260ff815f205416906003821015620021dd5760016004921462002651575163185d0ec560e31b8152fd5b9081518082526020808093019301915f5b82811062002712575050505090565b83518552938101939281019260010162002703565b909291925f6020620027b160018060a01b037f9e7b61f58c47dc699ac88507c4f5bb9f121c03808c5676a8078fe583e4649702541660409788519485809481936378542ead60e01b83526060600484015262002787606484018c620026f2565b90620027a160031992838682030160248701528c620023fe565b91848303016044850152620023fe565b03925af190811562002870575f916200282e575b50156200281d5792620028187fc6366bab028b8d033cb362cfd1f2f3457ef4e92fc738b6788b90d5a7846367a09394620028098351948486958652850190620026f2565b908382036020850152620023fe565b0390a1565b835163cf6c44e960e01b8152600490fd5b90506020813d60201162002867575b816200284c602093836200232e565b81010312620016475751801515810362001647575f620027c5565b3d91506200283d565b85513d5f823e3d90fd5b9081156200293c575b801562002927575b602090606460018060a01b037f9e7b61f58c47dc699ac88507c4f5bb9f121c03808c5676a8078fe583e46497015416935f604051958694859363022f65e760e31b8552600485015260248401528160448401525af1908115620021d2575f91620028f3575090565b90506020813d6020116200291e575b8162002911602093836200232e565b8101031262001647575190565b3d915062002902565b50602062002934620029ee565b90506200288b565b905062002948620029ee565b9062002883565b466001036200295d57600190565b4662aa36a7036200296e5761271190565b617a6946146200297c575f90565b5f1990565b5f80516020620037f7833981519152546001600160a01b031691823b156200164757604051635ca4b5b160e11b815260048101929092526001600160a01b03166024820152905f908290604490829084905af18015620021d257620029e35750565b6200239690620022cd565b7f9e7b61f58c47dc699ac88507c4f5bb9f121c03808c5676a8078fe583e464970154604051639cd07acb60e01b81525f60048201819052600560248301529091602091839160449183916001600160a01b03165af1908115620021d2575f91620028f357509056fe60a060405234620003995762000da0803803806200001d816200039d565b928339810190608081830312620003995780516001600160401b03908181116200039957836200004f918401620003c3565b92602090818401519083821162000399576200006d918501620003c3565b9360408401519361ffff851685036200039957606001516001600160a01b0395868216949185900362000399578251828111620002a4576003918254916001958684811c941680156200038e575b888510146200037a578190601f9485811162000327575b508890858311600114620002c4575f92620002b8575b50505f1982861b1c191690861b1783555b8051938411620002a45760049586548681811c9116801562000299575b8282101462000286578381116200023e575b5080928511600114620001d457509383949184925f95620001c8575b50501b925f19911b1c19161781555b8115620001b15750600580546001600160a01b03198116831790915560405193167f8be0079c531659141344cd1fd0a4f28419497f9722a3daafe3b4186f6b6457e05f80a360805261096c9081620004348239608051816103090152f35b6024905f60405191631e4fbdf760e01b8352820152fd5b015193505f8062000144565b92919084601f198116885f52855f20955f905b8983831062000223575050501062000209575b50505050811b01815562000153565b01519060f8845f19921b161c191690555f808080620001fa565b858701518955909701969485019488935090810190620001e7565b875f52815f208480880160051c8201928489106200027c575b0160051c019087905b8281106200027057505062000128565b5f815501879062000260565b9250819262000257565b602288634e487b7160e01b5f525260245ffd5b90607f169062000116565b634e487b7160e01b5f52604160045260245ffd5b015190505f80620000e8565b90889350601f19831691875f528a5f20925f5b8c828210620003105750508411620002f8575b505050811b018355620000f9565b01515f1983881b60f8161c191690555f8080620002ea565b8385015186558c97909501949384019301620002d7565b909150855f52885f208580850160051c8201928b861062000370575b918a91869594930160051c01915b82811062000361575050620000d2565b5f81558594508a910162000351565b9250819262000343565b634e487b7160e01b5f52602260045260245ffd5b93607f1693620000bb565b5f80fd5b6040519190601f01601f191682016001600160401b03811183821017620002a457604052565b919080601f84011215620003995782516001600160401b038111620002a457602090620003f9601f8201601f191683016200039d565b9281845282828701011162000399575f5b8181106200041f5750825f9394955001015290565b85810183015184820184015282016200040a56fe608060409080825260049081361015610016575f80fd5b5f3560e01c90816306fdde03146106a657508063095ea7b3146105fd57806318160ddd146105df57806323b872dd146104ee578063313ce567146104d357806332cb6b0c146104ad57806340c10f19146103e657806370a08231146103b0578063715018a6146103555780638da5cb5b1461032d5780638ed5b0fc146102ef57806395d89b41146101cf578063a9059cbb1461019f578063dd62ed3e146101565763f2fde38b146100c5575f80fd5b34610152576020366003190112610152576100de6107e3565b906100e761090a565b6001600160a01b0391821692831561013c575050600554826bffffffffffffffffffffffff60a01b821617600555167f8be0079c531659141344cd1fd0a4f28419497f9722a3daafe3b4186f6b6457e05f80a3005b905f6024925191631e4fbdf760e01b8352820152fd5b5f80fd5b82346101525780600319360112610152576020906101726107e3565b61017a6107f9565b9060018060a01b038091165f5260018452825f2091165f528252805f20549051908152f35b82346101525780600319360112610152576020906101c86101be6107e3565b6024359033610830565b5160018152f35b509034610152575f366003190112610152578051905f835460018160011c90600183169283156102e5575b60209384841081146102d2578388529081156102b65750600114610262575b505050829003601f01601f191682019267ffffffffffffffff84118385101761024f575082918261024b92528261079c565b0390f35b604190634e487b7160e01b5f525260245ffd5b5f878152929350837f8a35acfbc15ff81a39ae7d344fd709f28e8600b4aa8c65c6b64bfe7fe36bd19b5b8385106102a257505050508301015f8080610219565b80548886018301529301928490820161028c565b60ff1916878501525050151560051b84010190505f8080610219565b602289634e487b7160e01b5f525260245ffd5b91607f16916101fa565b8234610152575f366003190112610152576020905161ffff7f0000000000000000000000000000000000000000000000000000000000000000168152f35b8234610152575f3660031901126101525760055490516001600160a01b039091168152602090f35b34610152575f3660031901126101525761036d61090a565b600580546001600160a01b031981169091555f906001600160a01b03167f8be0079c531659141344cd1fd0a4f28419497f9722a3daafe3b4186f6b6457e08280a3005b8234610152576020366003190112610152576020906001600160a01b036103d56107e3565b165f525f8252805f20549051908152f35b5090346101525780600319360112610152576104006107e3565b906024359161040d61090a565b600254906b033b2e3c9fd0803ce8000000610428858461080f565b1161049d576001600160a01b03169384156104875750827fddf252ad1be2c89b69c2b068fc378daa952ba7f163c4a11628f55a4df523b3ef9261046e5f9560209461080f565b60025585855284835280852082815401905551908152a3005b6024905f84519163ec442f0560e01b8352820152fd5b825163c30436e960e01b81528590fd5b8234610152575f36600319011261015257602090516b033b2e3c9fd0803ce80000008152f35b8234610152575f366003190112610152576020905160128152f35b5034610152576060366003190112610152576105086107e3565b6105106107f9565b906044359260018060a01b038216805f526001602052855f20335f52602052855f2054915f19831061054b575b6020876101c8888888610830565b8583106105b357811561059d57331561058757505f908152600160209081528682203383528152908690209185900390915582906101c861053d565b6024905f885191634a1406b160e11b8352820152fd5b6024905f88519163e602df0560e01b8352820152fd5b8651637dc7a0d960e11b8152339181019182526020820193909352604081018690528291506060010390fd5b8234610152575f366003190112610152576020906002549051908152f35b5090346101525780600319360112610152576106176107e3565b602435903315610690576001600160a01b031690811561067a5760209350335f5260018452825f20825f52845280835f205582519081527f8c5be1e5ebec7d5bd14f71427d1e84f3dd0314c0f7b2291e5b200ac8c7c3b925843392a35160018152f35b8251634a1406b160e11b81525f81860152602490fd5b825163e602df0560e01b81525f81860152602490fd5b90508234610152575f366003190112610152575f60035460018160011c9060018316928315610792575b60209384841081146102d257838852908115610776575060011461072057505050829003601f01601f191682019267ffffffffffffffff84118385101761024f575082918261024b92528261079c565b60035f908152929350837fc2575a0e9e593c00f959f8c92f12db2869c3395a3b0502d05e2516446f71f85b5b8385106107625750505050830101848080610219565b80548886018301529301928490820161074c565b60ff1916878501525050151560051b8401019050848080610219565b91607f16916106d0565b602080825282518183018190529093925f5b8281106107cf57505060409293505f838284010152601f8019910116010190565b8181018601518482016040015285016107ae565b600435906001600160a01b038216820361015257565b602435906001600160a01b038216820361015257565b9190820180921161081c57565b634e487b7160e01b5f52601160045260245ffd5b916001600160a01b038084169283156108f257169283156108da57825f525f60205260405f2054908282106108a85750817fddf252ad1be2c89b69c2b068fc378daa952ba7f163c4a11628f55a4df523b3ef92602092855f525f84520360405f2055845f5260405f20818154019055604051908152a3565b60405163391434e360e21b81526001600160a01b03919091166004820152602481019190915260448101829052606490fd5b60405163ec442f0560e01b81525f6004820152602490fd5b604051634b637e8f60e11b81525f6004820152602490fd5b6005546001600160a01b0316330361091e57565b60405163118cdaa760e01b8152336004820152602490fdfea26469706673582212202664fc60aaec65c320a1cbf443d9dfd6493d4fc8227ca2093eb6c120d01bc5ce64736f6c634300081800339e7b61f58c47dc699ac88507c4f5bb9f121c03808c5676a8078fe583e4649700a26469706673582212206132f9d2a43e6341d1349b06c913f4569481678ec2f081743330fd7771f88a2864736f6c63430008180033",
  "devdoc": {
    "author": "cristhedev (https://github.com/cris-the-dev)",
    "custom:security-contact": "tiennln.work@gmail.com Note: Contribution amounts and targets are stored in wei, not ether units",
    "details": "This contract enables confidential fundraising campaigns where contribution amounts remain encrypted on-chain. It leverages FHEVM to perform operations on encrypted data without revealing individual contribution amounts. Only authorized parties can decrypt specific values after requesting decryption. Key Features: - Encrypted contribution tracking using FHE - Decentralized fund management through ShareVault - Automatic token distribution for successful campaigns - Refund mechanism for failed campaigns - Time-based campaign deadlines",
    "kind": "dev",
    "methods": {
      "callbackDecryptAvailableBalance(uint256,bytes,bytes)": {
        "details": "DEPRECATED - Non-functional in v0.9. Use submitAvailableBalanceDecryption() instead"
      },
      "callbackDecryptMyContribution(uint256,bytes,bytes)": {
        "details": "DEPRECATED - Non-functional in v0.9. Use submitMyContributionDecryption() instead"
      },
      "callbackDecryptTotalRaised(uint256,bytes,bytes)": {
        "details": "DEPRECATED - Non-functional in v0.9. Use submitTotalRaisedDecryption() instead"
      },
      "cancelCampaign(uint16)": {
        "custom:emits": "CampaignCancelled",
        "details": "Only the campaign owner can cancel. This immediately unlocks all contributor funds and prevents any further contributions. The campaign cannot be finalized after cancellation.",
        "params": {
          "campaignId": "The ID of the campaign to cancel"
        }
      },
      "claimTokens(uint16)": {
        "custom:emits": "TokensClaimedTokensDistributed",
        "details": "Contributors must first decrypt their contribution amount by calling requestMyContributionDecryption(). Tokens are distributed proportionally based on contribution amount relative to the target amount. Each contributor can only claim once.",
        "params": {
          "campaignId": "The ID of the successful campaign"
        }
      },
      "contribute(uint16,bytes32,bytes)": {
        "custom:emits": "ContributionMade",
        "details": "The contribution amount is encrypted and locked in the ShareVault. The actual amount remains private on-chain and can only be decrypted by authorized parties. Funds are locked until the campaign is finalized (either transferred to owner or refunded).",
        "params": {
          "campaignId": "The ID of the campaign to contribute to",
          "encryptedAmount": "The encrypted contribution amount (must be pre-encrypted by user)",
          "inputProof": "Zero-knowledge proof validating the encrypted input"
        }
      },
      "createCampaign(string,string,uint64,uint256)": {
        "custom:emits": "CampaignCreated",
        "details": "Initializes an encrypted total raised counter and sets campaign parameters. The campaign owner can later finalize it after the deadline to distribute tokens or refunds.",
        "params": {
          "description": "The campaign description",
          "duration": "The campaign duration in seconds (must be greater than 0)",
          "target": "The funding target amount in wei (must be greater than 0)",
          "title": "The campaign title (must not be empty)"
        },
        "returns": {
          "_0": "The newly created campaign ID"
        }
      },
      "finalizeCampaign(uint16,string,string)": {
        "custom:emits": "CampaignFinalizedCampaignFailed (if target not reached)",
        "details": "This function can only be called by the campaign owner after the deadline. The owner must first call requestTotalRaisedDecryption() to decrypt the total amount raised. If the target is reached, a new ERC20 token is deployed and funds are transferred to the owner. If the target is not reached, all locked funds are unlocked for contributor withdrawal.",
        "params": {
          "campaignId": "The ID of the campaign to finalize",
          "tokenName": "The name for the campaign token (required if target reached, can be empty otherwise)",
          "tokenSymbol": "The symbol for the campaign token (required if target reached, can be empty otherwise)"
        }
      },
      "getCampaign(uint16)": {
        "details": "Returns non-sensitive campaign data. Encrypted contribution amounts are not included.",
        "params": {
          "campaignId": "The ID of the campaign"
        },
        "returns": {
          "cancelled": "Whether the campaign has been cancelled",
          "deadline": "The campaign deadline timestamp",
          "description": "The campaign description",
          "finalized": "Whether the campaign has been finalized",
          "owner": "The address of the campaign creator",
          "targetAmount": "The funding target in wei",
          "title": "The campaign title"
        }
      },
      "getCampaignContributors(uint16)": {
        "details": "Returns addresses of all users who have made at least one contribution. Does not reveal contribution amounts.",
        "params": {
          "campaignId": "The ID of the campaign"
        },
        "returns": {
          "_0": "Array of contributor addresses"
        }
      },
      "getContributionStatus(uint16,address)": {
        "params": {
          "campaignId": "The campaign ID",
          "user": "The user address"
        },
        "returns": {
          "cacheExpiry": "The cache expiry timestamp",
          "contribution": "The decrypted contribution (0 if not decrypted)",
          "status": "The decryption status (0=NONE, 1=PROCESSING, 2=DECRYPTED)"
        }
      },
      "getEncryptedContribution(uint16,address)": {
        "details": "For user-side decryption. User must have been granted FHE permissions.",
        "params": {
          "campaignId": "The ID of the campaign",
          "user": "The address of the contributor"
        },
        "returns": {
          "_0": "The encrypted contribution amount"
        }
      },
      "getEncryptedTotalRaised(uint16)": {
        "details": "For user-side decryption. Campaign owner must have been granted FHE permissions.",
        "params": {
          "campaignId": "The ID of the campaign"
        },
        "returns": {
          "_0": "The encrypted total raised amount"
        }
      },
      "getMyContribution(uint16)": {
        "details": "The contribution must be decrypted first by calling requestMyContributionDecryption(). The decrypted value is cached with an expiration time.",
        "params": {
          "campaignId": "The ID of the campaign"
        },
        "returns": {
          "_0": "The decrypted contribution amount in wei"
        }
      },
      "getTotalRaised(uint16)": {
        "details": "Only the campaign owner can call this. The total must be decrypted first by calling requestTotalRaisedDecryption(). The decrypted value is cached with an expiration time.",
        "params": {
          "campaignId": "The ID of the campaign"
        },
        "returns": {
          "_0": "The decrypted total amount raised in wei"
        }
      },
      "getTotalRaisedStatus(uint16)": {
        "params": {
          "campaignId": "The campaign ID"
        },
        "returns": {
          "cacheExpiry": "The cache expiry timestamp",
          "status": "The decryption status (0=NONE, 1=PROCESSING, 2=DECRYPTED)",
          "totalRaised": "The decrypted total raised (0 if not decrypted)"
        }
      },
      "hasContribution(uint16,address)": {
        "params": {
          "campaignId": "The campaign ID",
          "user": "The user address"
        },
        "returns": {
          "_0": "hasContribution True if user has contributed"
        }
      },
      "requestMyContributionDecryption(uint16)": {
        "details": "After calling this, use the frontend relayer SDK's publicDecrypt() to get cleartext + proof, then call submitMyContributionDecryption() with the results to cache the decrypted value.",
        "params": {
          "campaignId": "The ID of the campaign"
        }
      },
      "requestTotalRaisedDecryption(uint16)": {
        "details": "Only the campaign owner can request this. After calling this, use the frontend relayer SDK's publicDecrypt() to get cleartext + proof, then call submitTotalRaisedDecryption() with the results.",
        "params": {
          "campaignId": "The ID of the campaign"
        }
      },
      "submitMyContributionDecryption(uint16,uint64,bytes)": {
        "details": "Called by the user after obtaining cleartext + proof via publicDecrypt() from the relayer SDK. Verifies the proof and caches the decrypted value.",
        "params": {
          "campaignId": "The ID of the campaign",
          "cleartextAmount": "The decrypted contribution amount (obtained from publicDecrypt)",
          "proof": "The cryptographic proof (obtained from publicDecrypt)"
        }
      },
      "submitTotalRaisedDecryption(uint16,uint64,bytes)": {
        "details": "Called by the campaign owner after obtaining cleartext + proof via publicDecrypt(). Verifies the proof and caches the decrypted value.",
        "params": {
          "campaignId": "The ID of the campaign",
          "cleartextTotal": "The decrypted total raised amount (obtained from publicDecrypt)",
          "proof": "The cryptographic proof (obtained from publicDecrypt)"
        }
      }
    },
    "title": "ConfidentialFundraising",
    "version": 1
  },
  "userdoc": {
    "errors": {
      "InvalidKMSSignatures()": [
        {
          "notice": "Returned if the returned KMS signatures are not valid."
        }
      ],
      "ZamaProtocolUnsupported()": [
        {
          "notice": "Returned if the Zama protocol is not supported on the current chain"
        }
      ]
    },
    "events": {
      "PublicDecryptionVerified(bytes32[],bytes)": {
        "notice": "This event is emitted when public decryption has been successfully verified."
      }
    },
    "kind": "user",
    "methods": {
      "cancelCampaign(uint16)": {
        "notice": "Cancels an active campaign before its deadline"
      },
      "claimTokens(uint16)": {
        "notice": "Claims campaign tokens for a contributor after successful campaign finalization"
      },
      "contribute(uint16,bytes32,bytes)": {
        "notice": "Make an encrypted contribution to a campaign"
      },
      "createCampaign(string,string,uint64,uint256)": {
        "notice": "Creates a new fundraising campaign"
      },
      "finalizeCampaign(uint16,string,string)": {
        "notice": "Finalizes a campaign after its deadline has passed"
      },
      "getCampaign(uint16)": {
        "notice": "Retrieves public campaign information"
      },
      "getCampaignContributors(uint16)": {
        "notice": "Retrieves the list of all contributors to a campaign"
      },
      "getContributionStatus(uint16,address)": {
        "notice": "Get the decryption status and cached contribution for a user"
      },
      "getEncryptedContribution(uint16,address)": {
        "notice": "Gets the encrypted contribution amount for a user in a campaign"
      },
      "getEncryptedTotalRaised(uint16)": {
        "notice": "Gets the encrypted total raised for a campaign"
      },
      "getMyContribution(uint16)": {
        "notice": "Retrieves the caller's decrypted contribution amount"
      },
      "getTotalRaised(uint16)": {
        "notice": "Retrieves the decrypted total amount raised for a campaign"
      },
      "getTotalRaisedStatus(uint16)": {
        "notice": "Get the decryption status and cached total raised for a campaign"
      },
      "hasContribution(uint16,address)": {
        "notice": "Check if user has any contribution to a campaign"
      },
      "requestMyContributionDecryption(uint16)": {
        "notice": "Marks the caller's contribution as publicly decryptable (v0.9 self-relaying)"
      },
      "requestTotalRaisedDecryption(uint16)": {
        "notice": "Marks the campaign's total raised as publicly decryptable (v0.9 self-relaying)"
      },
      "submitMyContributionDecryption(uint16,uint64,bytes)": {
        "notice": "Submits and verifies the decrypted contribution amount (v0.9 self-relaying)"
      },
      "submitTotalRaisedDecryption(uint16,uint64,bytes)": {
        "notice": "Submits and verifies the decrypted total raised amount (v0.9 self-relaying)"
      }
    },
    "notice": "A privacy-preserving crowdfunding platform using fully homomorphic encryption (FHE)",
    "version": 1
  },
  "storageLayout": {
    "storage": [
      {
        "astId": 43444,
        "contract": "contracts/ConfidentialFundraising.sol:ConfidentialFundraising",
        "label": "cacheTimeout",
        "offset": 0,
        "slot": "0",
        "type": "t_uint256"
      },
      {
        "astId": 43449,
        "contract": "contracts/ConfidentialFundraising.sol:ConfidentialFundraising",
        "label": "campaigns",
        "offset": 0,
        "slot": "1",
        "type": "t_mapping(t_uint16,t_struct(Campaign)43598_storage)"
      },
      {
        "astId": 43455,
        "contract": "contracts/ConfidentialFundraising.sol:ConfidentialFundraising",
        "label": "hasClaimed",
        "offset": 0,
        "slot": "2",
        "type": "t_mapping(t_uint16,t_mapping(t_address,t_bool))"
      },
      {
        "astId": 43462,
        "contract": "contracts/ConfidentialFundraising.sol:ConfidentialFundraising",
        "label": "encryptedContributions",
        "offset": 0,
        "slot": "3",
        "type": "t_mapping(t_uint16,t_mapping(t_address,t_userDefinedValueType(euint64)43639))"
      },
      {
        "astId": 43469,
        "contract": "contracts/ConfidentialFundraising.sol:ConfidentialFundraising",
        "label": "decryptedContributions",
        "offset": 0,
        "slot": "4",
        "type": "t_mapping(t_uint16,t_mapping(t_address,t_struct(Uint64ResultWithExp)43574_storage))"
      },
      {
        "astId": 43474,
        "contract": "contracts/ConfidentialFundraising.sol:ConfidentialFundraising",
        "label": "decryptedTotalRaised",
        "offset": 0,
        "slot": "5",
        "type": "t_mapping(t_uint16,t_struct(Uint64ResultWithExp)43574_storage)"
      },
      {
        "astId": 43478,
        "contract": "contracts/ConfidentialFundraising.sol:ConfidentialFundraising",
        "label": "decryptTotalRaisedRequest",
        "offset": 0,
        "slot": "6",
        "type": "t_mapping(t_uint256,t_uint16)"
      },
      {
        "astId": 43483,
        "contract": "contracts/ConfidentialFundraising.sol:ConfidentialFundraising",
        "label": "decryptTotalRaisedStatus",
        "offset": 0,
        "slot": "7",
        "type": "t_mapping(t_uint16,t_enum(DecryptStatus)43569)"
      },
      {
        "astId": 43488,
        "contract": "contracts/ConfidentialFundraising.sol:ConfidentialFundraising",
        "label": "decryptMyContributionRequest",
        "offset": 0,
        "slot": "8",
        "type": "t_mapping(t_uint256,t_struct(DecryptUserContributionRequest)43603_storage)"
      },
      {
        "astId": 43495,
        "contract": "contracts/ConfidentialFundraising.sol:ConfidentialFundraising",
        "label": "decryptMyContributionStatus",
        "offset": 0,
        "slot": "9",
        "type": "t_mapping(t_uint16,t_mapping(t_address,t_enum(DecryptStatus)43569))"
      },
      {
        "astId": 43497,
        "contract": "contracts/ConfidentialFundraising.sol:ConfidentialFundraising",
        "label": "campaignCount",
        "offset": 0,
        "slot": "10",
        "type": "t_uint16"
      },
      {
        "astId": 43502,
        "contract": "contracts/ConfidentialFundraising.sol:ConfidentialFundraising",
        "label": "campaignContributors",
        "offset": 0,
        "slot": "11",
        "type": "t_mapping(t_uint16,t_array(t_address)dyn_storage)"
      },
      {
        "astId": 43508,
        "contract": "contracts/ConfidentialFundraising.sol:ConfidentialFundraising",
        "label": "hasContributed",
        "offset": 0,
        "slot": "12",
        "type": "t_mapping(t_uint16,t_mapping(t_address,t_bool))"
      },
      {
        "astId": 43514,
        "contract": "contracts/ConfidentialFundraising.sol:ConfidentialFundraising",
        "label": "hasClaimedTokens",
        "offset": 0,
        "slot": "13",
        "type": "t_mapping(t_uint16,t_mapping(t_address,t_bool))"
      },
      {
        "astId": 43524,
        "contract": "contracts/ConfidentialFundraising.sol:ConfidentialFundraising",
        "label": "encryptedBalances",
        "offset": 0,
        "slot": "14",
        "type": "t_mapping(t_address,t_userDefinedValueType(euint64)43639)"
      },
      {
        "astId": 43531,
        "contract": "contracts/ConfidentialFundraising.sol:ConfidentialFundraising",
        "label": "lockedAmounts",
        "offset": 0,
        "slot": "15",
        "type": "t_mapping(t_address,t_mapping(t_uint16,t_userDefinedValueType(euint64)43639))"
      },
      {
        "astId": 43536,
        "contract": "contracts/ConfidentialFundraising.sol:ConfidentialFundraising",
        "label": "totalLocked",
        "offset": 0,
        "slot": "16",
        "type": "t_mapping(t_address,t_userDefinedValueType(euint64)43639)"
      },
      {
        "astId": 43541,
        "contract": "contracts/ConfidentialFundraising.sol:ConfidentialFundraising",
        "label": "availableBalanceStatus",
        "offset": 0,
        "slot": "17",
        "type": "t_mapping(t_address,t_enum(DecryptStatus)43569)"
      },
      {
        "astId": 43546,
        "contract": "contracts/ConfidentialFundraising.sol:ConfidentialFundraising",
        "label": "decryptedAvailableBalance",
        "offset": 0,
        "slot": "18",
        "type": "t_mapping(t_address,t_struct(Uint64ResultWithExp)43574_storage)"
      },
      {
        "astId": 43551,
        "contract": "contracts/ConfidentialFundraising.sol:ConfidentialFundraising",
        "label": "withdrawalRequests",
        "offset": 0,
        "slot": "19",
        "type": "t_mapping(t_uint256,t_struct(WithdrawalRequest)43610_storage)"
      },
      {
        "astId": 43556,
        "contract": "contracts/ConfidentialFundraising.sol:ConfidentialFundraising",
        "label": "pendingAvailableBalance",
        "offset": 0,
        "slot": "20",
        "type": "t_mapping(t_address,t_userDefinedValueType(euint64)43639)"
      },
      {
        "astId": 43558,
        "contract": "contracts/ConfidentialFundraising.sol:ConfidentialFundraising",
        "label": "campaignContract",
        "offset": 0,
        "slot": "21",
        "type": "t_address"
      }
    ],
    "types": {
      "t_address": {
        "encoding": "inplace",
        "label": "address",
        "numberOfBytes": "20"
      },
      "t_array(t_address)dyn_storage": {
        "base": "t_address",
        "encoding": "dynamic_array",
        "label": "address[]",
        "numberOfBytes": "32"
      },
      "t_bool": {
        "encoding": "inplace",
        "label": "bool",
        "numberOfBytes": "1"
      },
      "t_enum(DecryptStatus)43569": {
        "encoding": "inplace",
        "label": "enum CommonStruct.DecryptStatus",
        "numberOfBytes": "1"
      },
      "t_mapping(t_address,t_bool)": {
        "encoding": "mapping",
        "key": "t_address",
        "label": "mapping(address => bool)",
        "numberOfBytes": "32",
        "value": "t_bool"
      },
      "t_mapping(t_address,t_enum(DecryptStatus)43569)": {
        "encoding": "mapping",
        "key": "t_address",
        "label": "mapping(address => enum CommonStruct.DecryptStatus)",
        "numberOfBytes": "32",
        "value": "t_enum(DecryptStatus)43569"
      },
      "t_mapping(t_address,t_mapping(t_uint16,t_userDefinedValueType(euint64)43639))": {
        "encoding": "mapping",
        "key": "t_address",
        "label": "mapping(address => mapping(uint16 => euint64))",
        "numberOfBytes": "32",
        "value": "t_mapping(t_uint16,t_userDefinedValueType(euint64)43639)"
      },
      "t_mapping(t_address,t_struct(Uint64ResultWithExp)43574_storage)": {
        "encoding": "mapping",
        "key": "t_address",
        "label": "mapping(address => struct CommonStruct.Uint64ResultWithExp)",
        "numberOfBytes": "32",
        "value": "t_struct(Uint64ResultWithExp)43574_storage"
      },
      "t_mapping(t_address,t_userDefinedValueType(euint64)43639)": {
        "encoding": "mapping",
        "key": "t_address",
        "label": "mapping(address => euint64)",
        "numberOfBytes": "32",
        "value": "t_userDefinedValueType(euint64)43639"
      },
      "t_mapping(t_uint16,t_array(t_address)dyn_storage)": {
        "encoding": "mapping",
        "key": "t_uint16",
        "label": "mapping(uint16 => address[])",
        "numberOfBytes": "32",
        "value": "t_array(t_address)dyn_storage"
      },
      "t_mapping(t_uint16,t_enum(DecryptStatus)43569)": {
        "encoding": "mapping",
        "key": "t_uint16",
        "label": "mapping(uint16 => enum CommonStruct.DecryptStatus)",
        "numberOfBytes": "32",
        "value": "t_enum(DecryptStatus)43569"
      },
      "t_mapping(t_uint16,t_mapping(t_address,t_bool))": {
        "encoding": "mapping",
        "key": "t_uint16",
        "label": "mapping(uint16 => mapping(address => bool))",
        "numberOfBytes": "32",
        "value": "t_mapping(t_address,t_bool)"
      },
      "t_mapping(t_uint16,t_mapping(t_address,t_enum(DecryptStatus)43569))": {
        "encoding": "mapping",
        "key": "t_uint16",
        "label": "mapping(uint16 => mapping(address => enum CommonStruct.DecryptStatus))",
        "numberOfBytes": "32",
        "value": "t_mapping(t_address,t_enum(DecryptStatus)43569)"
      },
      "t_mapping(t_uint16,t_mapping(t_address,t_struct(Uint64ResultWithExp)43574_storage))": {
        "encoding": "mapping",
        "key": "t_uint16",
        "label": "mapping(uint16 => mapping(address => struct CommonStruct.Uint64ResultWithExp))",
        "numberOfBytes": "32",
        "value": "t_mapping(t_address,t_struct(Uint64ResultWithExp)43574_storage)"
      },
      "t_mapping(t_uint16,t_mapping(t_address,t_userDefinedValueType(euint64)43639))": {
        "encoding": "mapping",
        "key": "t_uint16",
        "label": "mapping(uint16 => mapping(address => euint64))",
        "numberOfBytes": "32",
        "value": "t_mapping(t_address,t_userDefinedValueType(euint64)43639)"
      },
      "t_mapping(t_uint16,t_struct(Campaign)43598_storage)": {
        "encoding": "mapping",
        "key": "t_uint16",
        "label": "mapping(uint16 => struct FundraisingStruct.Campaign)",
        "numberOfBytes": "32",
        "value": "t_struct(Campaign)43598_storage"
      },
      "t_mapping(t_uint16,t_struct(Uint64ResultWithExp)43574_storage)": {
        "encoding": "mapping",
        "key": "t_uint16",
        "label": "mapping(uint16 => struct CommonStruct.Uint64ResultWithExp)",
        "numberOfBytes": "32",
        "value": "t_struct(Uint64ResultWithExp)43574_storage"
      },
      "t_mapping(t_uint16,t_userDefinedValueType(euint64)43639)": {
        "encoding": "mapping",
        "key": "t_uint16",
        "label": "mapping(uint16 => euint64)",
        "numberOfBytes": "32",
        "value": "t_userDefinedValueType(euint64)43639"
      },
      "t_mapping(t_uint256,t_struct(DecryptUserContributionRequest)43603_storage)": {
        "encoding": "mapping",
        "key": "t_uint256",
        "label": "mapping(uint256 => struct FundraisingStruct.DecryptUserContributionRequest)",
        "numberOfBytes": "32",
        "value": "t_struct(DecryptUserContributionRequest)43603_storage"
      },
      "t_mapping(t_uint256,t_struct(WithdrawalRequest)43610_storage)": {
        "encoding": "mapping",
        "key": "t_uint256",
        "label": "mapping(uint256 => struct ShareVaultStruct.WithdrawalRequest)",
        "numberOfBytes": "32",
        "value": "t_struct(WithdrawalRequest)43610_storage"
      },
      "t_mapping(t_uint256,t_uint16)": {
        "encoding": "mapping",
        "key": "t_uint256",
        "label": "mapping(uint256 => uint16)",
        "numberOfBytes": "32",
        "value": "t_uint16"
      },
      "t_string_storage": {
        "encoding": "bytes",
        "label": "string",
        "numberOfBytes": "32"
      },
      "t_struct(Campaign)43598_storage": {
        "encoding": "inplace",
        "label": "struct FundraisingStruct.Campaign",
        "members": [
          {
            "astId": 43580,
            "contract": "contracts/ConfidentialFundraising.sol:ConfidentialFundraising",
            "label": "owner",
            "offset": 0,
            "slot": "0",
            "type": "t_address"
          },
          {
            "astId": 43582,
            "contract": "contracts/ConfidentialFundraising.sol:ConfidentialFundraising",
            "label": "title",
            "offset": 0,
            "slot": "1",
            "type": "t_string_storage"
          },
          {
            "astId": 43584,
            "contract": "contracts/ConfidentialFundraising.sol:ConfidentialFundraising",
            "label": "description",
            "offset": 0,
            "slot": "2",
            "type": "t_string_storage"
          },
          {
            "astId": 43587,
            "contract": "contracts/ConfidentialFundraising.sol:ConfidentialFundraising",
            "label": "totalRaised",
            "offset": 0,
            "slot": "3",
            "type": "t_userDefinedValueType(euint64)43639"
          },
          {
            "astId": 43589,
            "contract": "contracts/ConfidentialFundraising.sol:ConfidentialFundraising",
            "label": "targetAmount",
            "offset": 0,
            "slot": "4",
            "type": "t_uint64"
          },
          {
            "astId": 43591,
            "contract": "contracts/ConfidentialFundraising.sol:ConfidentialFundraising",
            "label": "deadline",
            "offset": 0,
            "slot": "5",
            "type": "t_uint256"
          },
          {
            "astId": 43593,
            "contract": "contracts/ConfidentialFundraising.sol:ConfidentialFundraising",
            "label": "finalized",
            "offset": 0,
            "slot": "6",
            "type": "t_bool"
          },
          {
            "astId": 43595,
            "contract": "contracts/ConfidentialFundraising.sol:ConfidentialFundraising",
            "label": "cancelled",
            "offset": 1,
            "slot": "6",
            "type": "t_bool"
          },
          {
            "astId": 43597,
            "contract": "contracts/ConfidentialFundraising.sol:ConfidentialFundraising",
            "label": "tokenAddress",
            "offset": 2,
            "slot": "6",
            "type": "t_address"
          }
        ],
        "numberOfBytes": "224"
      },
      "t_struct(DecryptUserContributionRequest)43603_storage": {
        "encoding": "inplace",
        "label": "struct FundraisingStruct.DecryptUserContributionRequest",
        "members": [
          {
            "astId": 43600,
            "contract": "contracts/ConfidentialFundraising.sol:ConfidentialFundraising",
            "label": "userAddress",
            "offset": 0,
            "slot": "0",
            "type": "t_address"
          },
          {
            "astId": 43602,
            "contract": "contracts/ConfidentialFundraising.sol:ConfidentialFundraising",
            "label": "campaignId",
            "offset": 20,
            "slot": "0",
            "type": "t_uint16"
          }
        ],
        "numberOfBytes": "32"
      },
      "t_struct(Uint64ResultWithExp)43574_storage": {
        "encoding": "inplace",
        "label": "struct CommonStruct.Uint64ResultWithExp",
        "members": [
          {
            "astId": 43571,
            "contract": "contracts/ConfidentialFundraising.sol:ConfidentialFundraising",
            "label": "data",
            "offset": 0,
            "slot": "0",
            "type": "t_uint64"
          },
          {
            "astId": 43573,
            "contract": "contracts/ConfidentialFundraising.sol:ConfidentialFundraising",
            "label": "exp",
            "offset": 0,
            "slot": "1",
            "type": "t_uint256"
          }
        ],
        "numberOfBytes": "64"
      },
      "t_struct(WithdrawalRequest)43610_storage": {
        "encoding": "inplace",
        "label": "struct ShareVaultStruct.WithdrawalRequest",
        "members": [
          {
            "astId": 43609,
            "contract": "contracts/ConfidentialFundraising.sol:ConfidentialFundraising",
            "label": "userAddress",
            "offset": 0,
            "slot": "0",
            "type": "t_address"
          }
        ],
        "numberOfBytes": "32"
      },
      "t_uint16": {
        "encoding": "inplace",
        "label": "uint16",
        "numberOfBytes": "2"
      },
      "t_uint256": {
        "encoding": "inplace",
        "label": "uint256",
        "numberOfBytes": "32"
      },
      "t_uint64": {
        "encoding": "inplace",
        "label": "uint64",
        "numberOfBytes": "8"
      },
      "t_userDefinedValueType(euint64)43639": {
        "encoding": "inplace",
        "label": "euint64",
        "numberOfBytes": "32"
      }
    }
  }
}