{
  "address": "0xc4102208Ff370B5fAcB043398d6B5f9f927EBa33",
  "abi": [
    {
      "inputs": [],
      "stateMutability": "nonpayable",
      "type": "constructor"
    },
    {
      "inputs": [],
      "name": "CampaignContractAlreadySet",
      "type": "error"
    },
    {
      "inputs": [],
      "name": "DecryptAlreadyInProgress",
      "type": "error"
    },
    {
      "inputs": [],
      "name": "DecryptionCacheExpired",
      "type": "error"
    },
    {
      "inputs": [],
      "name": "DecryptionProcessing",
      "type": "error"
    },
    {
      "inputs": [],
      "name": "DepositAmountTooLarge",
      "type": "error"
    },
    {
      "inputs": [],
      "name": "InsufficientAvailableBalance",
      "type": "error"
    },
    {
      "inputs": [],
      "name": "InsufficientBalance",
      "type": "error"
    },
    {
      "inputs": [],
      "name": "InsufficientUnlockedBalance",
      "type": "error"
    },
    {
      "inputs": [],
      "name": "InsufficientVaultBalance",
      "type": "error"
    },
    {
      "inputs": [],
      "name": "InvalidDepositAmount",
      "type": "error"
    },
    {
      "inputs": [],
      "name": "InvalidKMSSignatures",
      "type": "error"
    },
    {
      "inputs": [],
      "name": "InvalidWithdrawalAmount",
      "type": "error"
    },
    {
      "inputs": [],
      "name": "MustDecryptFirst",
      "type": "error"
    },
    {
      "inputs": [],
      "name": "NoBalance",
      "type": "error"
    },
    {
      "inputs": [],
      "name": "NoLockedAmount",
      "type": "error"
    },
    {
      "inputs": [],
      "name": "OnlyCampaignContract",
      "type": "error"
    },
    {
      "inputs": [],
      "name": "OnlyOwner",
      "type": "error"
    },
    {
      "inputs": [],
      "name": "UserHasNoBalance",
      "type": "error"
    },
    {
      "inputs": [],
      "name": "WithdrawalFailed",
      "type": "error"
    },
    {
      "inputs": [],
      "name": "ZamaProtocolUnsupported",
      "type": "error"
    },
    {
      "anonymous": false,
      "inputs": [
        {
          "indexed": true,
          "internalType": "address",
          "name": "user",
          "type": "address"
        },
        {
          "indexed": false,
          "internalType": "uint64",
          "name": "amount",
          "type": "uint64"
        }
      ],
      "name": "AvailableBalanceDecrypted",
      "type": "event"
    },
    {
      "anonymous": false,
      "inputs": [
        {
          "indexed": true,
          "internalType": "address",
          "name": "user",
          "type": "address"
        },
        {
          "indexed": false,
          "internalType": "uint256",
          "name": "amount",
          "type": "uint256"
        }
      ],
      "name": "Deposited",
      "type": "event"
    },
    {
      "anonymous": false,
      "inputs": [
        {
          "indexed": true,
          "internalType": "address",
          "name": "user",
          "type": "address"
        },
        {
          "indexed": true,
          "internalType": "uint16",
          "name": "campaignId",
          "type": "uint16"
        }
      ],
      "name": "FundsLocked",
      "type": "event"
    },
    {
      "anonymous": false,
      "inputs": [
        {
          "indexed": true,
          "internalType": "address",
          "name": "from",
          "type": "address"
        },
        {
          "indexed": true,
          "internalType": "address",
          "name": "to",
          "type": "address"
        },
        {
          "indexed": true,
          "internalType": "uint16",
          "name": "campaignId",
          "type": "uint16"
        }
      ],
      "name": "FundsTransferred",
      "type": "event"
    },
    {
      "anonymous": false,
      "inputs": [
        {
          "indexed": true,
          "internalType": "address",
          "name": "user",
          "type": "address"
        },
        {
          "indexed": true,
          "internalType": "uint16",
          "name": "campaignId",
          "type": "uint16"
        }
      ],
      "name": "FundsUnlocked",
      "type": "event"
    },
    {
      "anonymous": false,
      "inputs": [
        {
          "indexed": true,
          "internalType": "address",
          "name": "user",
          "type": "address"
        },
        {
          "indexed": true,
          "internalType": "uint16",
          "name": "campaignId",
          "type": "uint16"
        },
        {
          "indexed": false,
          "internalType": "uint256",
          "name": "requestId",
          "type": "uint256"
        }
      ],
      "name": "LockRequestInitiated",
      "type": "event"
    },
    {
      "anonymous": false,
      "inputs": [
        {
          "indexed": false,
          "internalType": "bytes32[]",
          "name": "handlesList",
          "type": "bytes32[]"
        },
        {
          "indexed": false,
          "internalType": "bytes",
          "name": "abiEncodedCleartexts",
          "type": "bytes"
        }
      ],
      "name": "PublicDecryptionVerified",
      "type": "event"
    },
    {
      "anonymous": false,
      "inputs": [
        {
          "indexed": true,
          "internalType": "address",
          "name": "user",
          "type": "address"
        },
        {
          "indexed": false,
          "internalType": "uint256",
          "name": "requestId",
          "type": "uint256"
        }
      ],
      "name": "WithdrawalDecryptionRequested",
      "type": "event"
    },
    {
      "anonymous": false,
      "inputs": [
        {
          "indexed": true,
          "internalType": "address",
          "name": "user",
          "type": "address"
        },
        {
          "indexed": false,
          "internalType": "uint256",
          "name": "amount",
          "type": "uint256"
        }
      ],
      "name": "Withdrawn",
      "type": "event"
    },
    {
      "inputs": [],
      "name": "CACHE_TIMEOUT",
      "outputs": [
        {
          "internalType": "uint256",
          "name": "",
          "type": "uint256"
        }
      ],
      "stateMutability": "view",
      "type": "function"
    },
    {
      "inputs": [
        {
          "internalType": "uint256",
          "name": "requestId",
          "type": "uint256"
        },
        {
          "internalType": "bytes",
          "name": "cleartexts",
          "type": "bytes"
        },
        {
          "internalType": "bytes",
          "name": "decryptionProof",
          "type": "bytes"
        }
      ],
      "name": "callbackDecryptAvailableBalance",
      "outputs": [],
      "stateMutability": "nonpayable",
      "type": "function"
    },
    {
      "inputs": [
        {
          "internalType": "uint256",
          "name": "requestId",
          "type": "uint256"
        },
        {
          "internalType": "bytes",
          "name": "cleartexts",
          "type": "bytes"
        },
        {
          "internalType": "bytes",
          "name": "decryptionProof",
          "type": "bytes"
        }
      ],
      "name": "callbackDecryptMyContribution",
      "outputs": [],
      "stateMutability": "nonpayable",
      "type": "function"
    },
    {
      "inputs": [
        {
          "internalType": "uint256",
          "name": "requestId",
          "type": "uint256"
        },
        {
          "internalType": "bytes",
          "name": "cleartexts",
          "type": "bytes"
        },
        {
          "internalType": "bytes",
          "name": "decryptionProof",
          "type": "bytes"
        }
      ],
      "name": "callbackDecryptTotalRaised",
      "outputs": [],
      "stateMutability": "nonpayable",
      "type": "function"
    },
    {
      "inputs": [],
      "name": "campaignContract",
      "outputs": [
        {
          "internalType": "address",
          "name": "",
          "type": "address"
        }
      ],
      "stateMutability": "view",
      "type": "function"
    },
    {
      "inputs": [],
      "name": "campaignCount",
      "outputs": [
        {
          "internalType": "uint16",
          "name": "",
          "type": "uint16"
        }
      ],
      "stateMutability": "view",
      "type": "function"
    },
    {
      "inputs": [
        {
          "internalType": "uint16",
          "name": "",
          "type": "uint16"
        }
      ],
      "name": "campaigns",
      "outputs": [
        {
          "internalType": "address",
          "name": "owner",
          "type": "address"
        },
        {
          "internalType": "string",
          "name": "title",
          "type": "string"
        },
        {
          "internalType": "string",
          "name": "description",
          "type": "string"
        },
        {
          "internalType": "euint64",
          "name": "totalRaised",
          "type": "bytes32"
        },
        {
          "internalType": "uint64",
          "name": "targetAmount",
          "type": "uint64"
        },
        {
          "internalType": "uint256",
          "name": "deadline",
          "type": "uint256"
        },
        {
          "internalType": "bool",
          "name": "finalized",
          "type": "bool"
        },
        {
          "internalType": "bool",
          "name": "cancelled",
          "type": "bool"
        },
        {
          "internalType": "address",
          "name": "tokenAddress",
          "type": "address"
        }
      ],
      "stateMutability": "view",
      "type": "function"
    },
    {
      "inputs": [],
      "name": "confidentialProtocolId",
      "outputs": [
        {
          "internalType": "uint256",
          "name": "",
          "type": "uint256"
        }
      ],
      "stateMutability": "view",
      "type": "function"
    },
    {
      "inputs": [],
      "name": "deposit",
      "outputs": [],
      "stateMutability": "payable",
      "type": "function"
    },
    {
      "inputs": [],
      "name": "getAvailableBalance",
      "outputs": [
        {
          "internalType": "uint64",
          "name": "",
          "type": "uint64"
        }
      ],
      "stateMutability": "view",
      "type": "function"
    },
    {
      "inputs": [],
      "name": "getAvailableBalanceStatus",
      "outputs": [
        {
          "internalType": "enum CommonStruct.DecryptStatus",
          "name": "status",
          "type": "uint8"
        },
        {
          "internalType": "uint64",
          "name": "availableAmount",
          "type": "uint64"
        },
        {
          "internalType": "uint256",
          "name": "cacheExpiry",
          "type": "uint256"
        }
      ],
      "stateMutability": "view",
      "type": "function"
    },
    {
      "inputs": [],
      "name": "getEncryptedBalance",
      "outputs": [
        {
          "internalType": "euint64",
          "name": "",
          "type": "bytes32"
        }
      ],
      "stateMutability": "view",
      "type": "function"
    },
    {
      "inputs": [],
      "name": "getEncryptedBalanceAndLocked",
      "outputs": [
        {
          "internalType": "euint64",
          "name": "balance",
          "type": "bytes32"
        },
        {
          "internalType": "euint64",
          "name": "locked",
          "type": "bytes32"
        }
      ],
      "stateMutability": "view",
      "type": "function"
    },
    {
      "inputs": [],
      "name": "getEncryptedTotalLocked",
      "outputs": [
        {
          "internalType": "euint64",
          "name": "",
          "type": "bytes32"
        }
      ],
      "stateMutability": "view",
      "type": "function"
    },
    {
      "inputs": [
        {
          "internalType": "uint16",
          "name": "",
          "type": "uint16"
        },
        {
          "internalType": "address",
          "name": "",
          "type": "address"
        }
      ],
      "name": "hasClaimed",
      "outputs": [
        {
          "internalType": "bool",
          "name": "",
          "type": "bool"
        }
      ],
      "stateMutability": "view",
      "type": "function"
    },
    {
      "inputs": [
        {
          "internalType": "uint16",
          "name": "",
          "type": "uint16"
        },
        {
          "internalType": "address",
          "name": "",
          "type": "address"
        }
      ],
      "name": "hasClaimedTokens",
      "outputs": [
        {
          "internalType": "bool",
          "name": "",
          "type": "bool"
        }
      ],
      "stateMutability": "view",
      "type": "function"
    },
    {
      "inputs": [
        {
          "internalType": "address",
          "name": "user",
          "type": "address"
        },
        {
          "internalType": "uint16",
          "name": "campaignId",
          "type": "uint16"
        },
        {
          "internalType": "euint64",
          "name": "amount",
          "type": "bytes32"
        }
      ],
      "name": "lockFunds",
      "outputs": [],
      "stateMutability": "nonpayable",
      "type": "function"
    },
    {
      "inputs": [],
      "name": "owner",
      "outputs": [
        {
          "internalType": "address",
          "name": "",
          "type": "address"
        }
      ],
      "stateMutability": "view",
      "type": "function"
    },
    {
      "inputs": [],
      "name": "requestAvailableBalanceDecryption",
      "outputs": [],
      "stateMutability": "nonpayable",
      "type": "function"
    },
    {
      "inputs": [
        {
          "internalType": "address",
          "name": "_campaignContract",
          "type": "address"
        }
      ],
      "name": "setCampaignContract",
      "outputs": [],
      "stateMutability": "nonpayable",
      "type": "function"
    },
    {
      "inputs": [
        {
          "internalType": "uint64",
          "name": "cleartextAvailable",
          "type": "uint64"
        },
        {
          "internalType": "bytes",
          "name": "proof",
          "type": "bytes"
        }
      ],
      "name": "submitAvailableBalanceDecryption",
      "outputs": [],
      "stateMutability": "nonpayable",
      "type": "function"
    },
    {
      "inputs": [
        {
          "internalType": "address",
          "name": "user",
          "type": "address"
        },
        {
          "internalType": "address",
          "name": "campaignOwner",
          "type": "address"
        },
        {
          "internalType": "uint16",
          "name": "campaignId",
          "type": "uint16"
        }
      ],
      "name": "transferLockedFunds",
      "outputs": [
        {
          "internalType": "euint64",
          "name": "",
          "type": "bytes32"
        }
      ],
      "stateMutability": "nonpayable",
      "type": "function"
    },
    {
      "inputs": [
        {
          "internalType": "address",
          "name": "user",
          "type": "address"
        },
        {
          "internalType": "uint16",
          "name": "campaignId",
          "type": "uint16"
        }
      ],
      "name": "unlockFunds",
      "outputs": [],
      "stateMutability": "nonpayable",
      "type": "function"
    },
    {
      "inputs": [
        {
          "internalType": "uint64",
          "name": "amount",
          "type": "uint64"
        }
      ],
      "name": "withdraw",
      "outputs": [],
      "stateMutability": "nonpayable",
      "type": "function"
    }
  ],
  "transactionHash": "0x5ec3caeaef4770bc8f519ffe535e206c3ce081ae66390126cf7dad98906354e3",
  "args": [],
  "numDeployments": 2,
  "solcInputHash": "3cae96dede49e51bc6337025c722462a",
  "bytecode": "0x60406080815234620001f257620000156200022a565b50466001036200010357620000296200022a565b5062000034620001f6565b5f81525f60208201525f828201525b60018060a01b0382818351169260018060a01b0319937f9e7b61f58c47dc699ac88507c4f5bb9f121c03808c5676a8078fe583e46497009085825416179055826020820151167f9e7b61f58c47dc699ac88507c4f5bb9f121c03808c5676a8078fe583e464970190858254161790550151167f9e7b61f58c47dc699ac88507c4f5bb9f121c03808c5676a8078fe583e464970290828254161790556102585f5580601554166015553390601654161760165551611cc89081620002478239f35b4662aa36a7036200017357620001186200022a565b5062000123620001f6565b73f0ffdc93b7e186bc2f8cb3daa75d86d1930a433d81527392c920834ec8941d2c77d188936e1f7a6f49c127602082015273be0e383937d564d7ff0bc3b46c51f0bf8d5c311a8282015262000043565b46617a6903620001e257620001876200022a565b5062000192620001f6565b7350157cffd6bbfa2dece204a89ec419c23ef5755d815273e3a9105a3a932253a70f126eb1e3b589c643dd24602082015273901f8942346f7ab3a01f6d7613119bca447bb0308282015262000043565b516373cac13b60e01b8152600490fd5b5f80fd5b60405190606082016001600160401b038111838210176200021657604052565b634e487b7160e01b5f52604160045260245ffd5b62000234620001f6565b905f82525f60208301525f604083015256fe60806040526004361015610011575f80fd5b5f803560e01c80631ed3399814611649578063349fb77b146115dc578063459a5083146115a957806358ae05cd14611581578063669be2d6146115115780636b33ee091461139e5780636cec24fe146110e65780637274e30d146110c4578063750f0acc14610ec85780637709c16314610d43578063809dab6a14610c7b578063823294ba1461079e5780638927b0301461077b5780638da5cb5b1461075257806399d7cf01146106e7578063a327d9b114610693578063a57f5f581461066c578063a9b8a9ce14610645578063b2b867ac14610628578063ba0ab983146105d4578063c10046c314610564578063cb4869ed146104f6578063d0e30db0146103b85763f3478ab914610122575f80fd5b346103b55760603660031901126103b55761013b6118ab565b906101446118c1565b60443561ffff81168091036103b1576015546001600160a01b0392908316330361039f57828516808552602095600f875260408620845f52875260405f205494851561038d5761030f61032f92896102a28997878c528b600e84818096526101c66101b38d60408620546119c3565b8c85528383528060408620553090611b5c565b8a83528181526101da876040852054611b5c565b8a83528181526101f360408420548a6015541690611b5c565b8a83526010815261021f61020b8d60408620546119c3565b8c8552601083528060408620553090611b5c565b8a835260108152610234876040852054611b5c565b8a83526010815261024e60408420548a6015541690611b5c565b888416809c818552838352604085208054908115155f1461038057509061027491611aa9565b93525260408d20555b888c52828d526102928c604030912054611b5c565b888c52828d5260408c2054611b5c565b868a528a526102ba60408a2054846015541690611b5c565b6102c2611c1f565b858a52600f8b5260408a20885f528b5260405f2055848952600f8a5260408920875f528a526102f53060405f2054611b5c565b848952600f8a5260408920875f528a5260405f2054611b5c565b828752600f885260408720855f52885260405f2054906015541690611b5c565b808552601286525f6001604087208281550155808552601186526040852060ff1981541690557f48863b9440e731ce47d2d0cb2155a76a0f38c0c896a264983b01223f99bbe09f6040519580a48152f35b945050935050505561027d565b604051631882a70d60e21b8152600490fd5b604051632b58c3e760e01b8152600490fd5b5f80fd5b80fd5b50806003193601126103b55734156104e4576001600160401b038034116104d2576103e4903416611bcc565b338252602090600e8252604083209081548015155f146104ca576104089250611aa9565b338352600e825260408320555b338252600e815261042b60408320543090611b5c565b338252600e8152610440336040842054611b5c565b6015546001600160a01b0316806104af575b5033825260128152816001604082206001600160401b031981541681550155601181526040822060ff1981541690557f2da466a7b24304f47e87fa2e1e5a81b9831ce54fec19055ce277ca2f39ba42c4604051913483523392a280f35b6104c490338452600e83526040842054611b5c565b5f610452565b509055610415565b6040516305b9d51760e41b8152600490fd5b60405163fe9ba5cd60e01b8152600490fd5b50346103b5576105053661195c565b505060405162461bcd60e51b815260206004820152602e60248201527f444550524543415445443a20557365207375626d69744d79436f6e747269627560448201526d3a34b7b72232b1b93cb83a34b7b760911b606482015260849150fd5b50346103b5576105733661195c565b505060405162461bcd60e51b815260206004820152603060248201527f444550524543415445443a20557365207375626d6974417661696c61626c654260448201526f30b630b731b2a232b1b93cb83a34b7b760811b606482015260849150fd5b50346103b55760403660031901126103b55760406105f061171b565b9161ffff6105fc6118c1565b93168152600d602052209060018060a01b03165f52602052602060ff60405f2054166040519015158152f35b50346103b557806003193601126103b55760206040516102588152f35b50346103b557806003193601126103b5576040602091338152601083522054604051908152f35b50346103b557806003193601126103b5576040602091338152600e83522054604051908152f35b50346103b55760403660031901126103b55760406106af61171b565b9161ffff6106bb6118c1565b931681526002602052209060018060a01b03165f52602052602060ff60405f2054166040519015158152f35b50346103b5576106f63661195c565b505060405162461bcd60e51b815260206004820152602b60248201527f444550524543415445443a20557365207375626d6974546f74616c526169736560448201526a322232b1b93cb83a34b7b760a91b606482015260849150fd5b50346103b557806003193601126103b5576016546040516001600160a01b039091168152602090f35b50346103b557806003193601126103b5576020610796611b2d565b604051908152f35b50346103b55760603660031901126103b5576107b86118ab565b6107c061172c565b6015549091906001600160a01b0316330361039f576001600160a01b0381168352600e60205260408320548015610c69576001600160a01b03821684526010602052604084205490818015610c6357610818916119c3565b6108223082611b5c565b6044358115610c53575b60443515610c41575b5f80516020611c7383398151915254604051631391547f60e01b8152600481019390935260248301919091526001600160f81b0319861660448301526020908290606490829089906001600160a01b03165af1908115610b51578591610c0f575b506108a13082611b5c565b6108a9611c1f565b6044358215610b80575b60443515610b72575b8115610b5c575b6064602092938860018060a01b035f80516020611c7383398151915254166040519687958694637702dcff60e01b86526004860152602485015260448401525af1908115610b51578591610b1f575b5061091d3082611b5c565b60018060a01b0383168552600f918260205261ffff60408720951694855f5260205260405f2054828115155f14610af75761095791611aa9565b6001600160a01b0385168752602084815260408089205f89815292529020555b8015610adb579061098791611aa9565b6001600160a01b0383168552601060205260408520555b60018060a01b03821684528060205260408420835f526020526109c53060405f2054611b5c565b6001600160a01b038281168552602082815260408087205f87815292529020546015546109f3921690611b5c565b60018060a01b038216845260205260408320825f52602052610a198160405f2054611b5c565b6001600160a01b038116835260106020526040832054610a3a903090611b5c565b6001600160a01b03818116845260106020526040842054601554610a5f921690611b5c565b6001600160a01b038116835260106020526040832054610a80908290611b5c565b6001600160a01b03168083526012602090815260408085205f80825560019091015582855260119091528320805460ff191690557fcd7f44294401a9a817b59c3aac6ebf3ba2d36caabd5ef1d90338682a453f6a7b8380a380f35b506001600160a01b03831685526010602052604085205561099e565b50506001600160a01b0384168652602083815260408088205f88815292529020829055610977565b90506020813d602011610b49575b81610b3a6020938361177f565b810103126103b157515f610912565b3d9150610b2d565b6040513d87823e3d90fd5b602091506064610b6a611c1f565b9250506108c3565b50610b7b611c1f565b6108bc565b91505f602060018060a01b035f80516020611c738339815191525416604460405180948193639cd07acb60e01b83528c60048401528160248401525af1908115610c04575f91610bd2575b50916108b3565b90506020813d602011610bfc575b81610bed6020938361177f565b810103126103b157515f610bcb565b3d9150610be0565b6040513d5f823e3d90fd5b90506020813d602011610c39575b81610c2a6020938361177f565b810103126103b157515f610896565b3d9150610c1d565b506020610c4c611c1f565b9050610835565b9050610c5d611c1f565b9061082c565b50610818565b60405163c015977760e01b8152600490fd5b50346103b557806003193601126103b557338152601260205260206040822091604051610ca78161173d565b60016001600160401b0385541694858352015492839101528115610ce957504211610cd757602090604051908152f35b60405163055a0ab760e31b8152600490fd5b338152601160205260ff604082205416906003821015610d2f5760018214610d1d5760405163e336dced60e01b8152600490fd5b604051634c3dbb8560e11b8152600490fd5b634e487b7160e01b81526021600452602490fd5b50346103b55760403660031901126103b557610d5d6118ab565b610d6561172c565b6015549091906001600160a01b03908116330361039f5780821691828552602090600f825261ffff60408720951694855f52825260405f205492831561038d57610e5e610e7e92610dda610dc6601197898c526010885260408c20546119c3565b888b52601087528060408c20553090611b5c565b86895260108552610def8160408b2054611b5c565b86895260108552610e0960408a2054846015541690611b5c565b610e11611c1f565b878a52600f865260408a20895f52865260405f2055868952600f855260408920885f528552610e443060405f2054611b5c565b868952600f855260408920885f52855260405f2054611b5c565b848752600f835260408720865f52835260405f2054906015541690611b5c565b828552601281525f6001604087208281550155828552526040832060ff1981541690557fc9ded3d0d6b8883d158b2912c09e57e4eeb6bd6454742de39c432f7be201f3558380a380f35b50346103b5576020806003193601126110c0576001600160401b039081610eed6118d7565b169182156110ae5782471061109c5733845260128252816040852091600160405191610f188361173d565b84541693848352015491829101528015611069574211610cd757821161105757338352600e8152610f6d610f596040852054610f5385611bcc565b906119c3565b338552600e83528060408620553090611b5c565b338352600e8152610f82336040852054611b5c565b6015546001600160a01b03168061103c575b5033835260128152826001604082206001600160401b031981541681550155601181526040832060ff1981541690558280808085335af13d15611037573d610fdb816118ed565b90610fe9604051928361177f565b815284833d92013e5b15611025577f7084f5476618d8e60b11ef0d7d3f06914655adb8793e28ff7f018d4c76d505d5906040519283523392a280f35b6040516327fcd9d160e01b8152600490fd5b610ff2565b61105190338552600e83526040852054611b5c565b5f610f94565b60405163528ef59f60e11b8152600490fd5b33855260118352604085205460ff16856003821015610d2f5760018214610d1d5760405163e336dced60e01b8152600490fd5b6040516314ecd6c760e01b8152600490fd5b604051639abc749160e01b8152600490fd5b5080fd5b50346103b557806003193601126103b557602061ffff600a5416604051908152f35b50346103b557600319906040368301126103b5576111026118d7565b602492906001600160401b03843581811161139a573660238201121561139a578060040135928284116113965736878584010111611396573386526020946011865260ff6040882054166003811015611383576001036113715733875260148652604087205490811561135f578887916112158a611225956112346111c46040519a8b9361118f8561173d565b600185528936818701376111a2856119a2565b528c6040519b169d8e8a8d0152898c526111bb8c61173d565b88369201611908565b9460018060a01b037f9e7b61f58c47dc699ac88507c4f5bb9f121c03808c5676a8078fe583e4649702541695604051998a98899788966378542ead60e01b8852606060048901526064880190611a76565b908487830301908701528c61186d565b9184830301604485015261186d565b03925af190811561135457879161131a575b5015611308577fc6366bab028b8d033cb362cfd1f2f3457ef4e92fc738b6788b90d5a7846367a09161129661128992604051938493604085526040850190611a76565b908382038985015261186d565b0390a183544201948542116112f6575060119394600191604051936112ba8561173d565b845284840191825233875260128552604087209351166001600160401b0319845416178355519101555260408120600260ff1982541617905580f35b634e487b7160e01b8552601160045284fd5b60405163cf6c44e960e01b8152600490fd5b90508581813d831161134d575b611331818361177f565b8101031261134957518015158103611349575f611246565b8680fd5b503d611327565b6040513d89823e3d90fd5b604051636165515360e11b8152600490fd5b604051637299cb1960e01b8152600490fd5b634e487b7160e01b885260216004528888fd5b8580fd5b8480fd5b50346103b1575f3660031901126103b157335f5260206011815260ff60405f20541660038110156114fd5760011461137157335f52600e815260405f2054801561135f57335f90815260108352604090205480156114f7576113ff916119c3565b6114093082611b5c565b6040516114158161173d565b6001815282368183013781611429826119a2565b527f9e7b61f58c47dc699ac88507c4f5bb9f121c03808c5676a8078fe583e4649700546001600160a01b0316803b156103b1576114875f92918392604051948580948193637d6e912360e11b83528a60048401526024830190611a76565b03925af18015610c04576114e4575b503383526014825260408320556011815260408220600160ff198254161790557fbd39a2181298499fd7cac17e7a4ca79c6a2a86be8394fcb12f279c0ab6a6a11d604051918383523392a280f35b6114ef91935061176c565b5f915f611496565b506113ff565b634e487b7160e01b5f52602160045260245ffd5b346103b15760203660031901126103b15761152a6118ab565b6016546001600160a01b03908116330361156f576015549181831661155d576001600160a01b0319909216911617601555005b6040516311dac86360e11b8152600490fd5b604051635fc483c560e01b8152600490fd5b346103b1575f3660031901126103b1576015546040516001600160a01b039091168152602090f35b346103b1575f3660031901126103b157335f52600e6020526040805f20546010602052815f205482519182526020820152f35b346103b1575f3660031901126103b157335f52601160205260ff60405f205416601260205260405f2060206040516116138161173d565b60016001600160401b0384541693848352015491829101526040519160038410156114fd57606093835260208301526040820152f35b346103b15760203660031901126103b15761ffff61166561171b565b165f52600160205260405f2060018060a01b0390818154169061168a600182016117a0565b92611697600283016117a0565b6003830154926001600160401b036004820154166116e460066005840154930154936116d6604051998a99610120908b528060208c01528a019061186d565b9088820360408a015261186d565b946060870152608086015260a085015260ff8116151560c085015260ff8160081c16151560e085015260101c166101008301520390f35b6004359061ffff821682036103b157565b6024359061ffff821682036103b157565b604081019081106001600160401b0382111761175857604052565b634e487b7160e01b5f52604160045260245ffd5b6001600160401b03811161175857604052565b90601f801991011681019081106001600160401b0382111761175857604052565b90604051915f9080549160018360011c9060018516938415611863575b602095868410861461184f57838952889590811561182d57506001146117ef575b5050506117ed9250038361177f565b565b5f90815285812095935091905b8183106118155750506117ed93508201015f80806117de565b855488840185015294850194879450918301916117fc565b925050506117ed94925060ff191682840152151560051b8201015f80806117de565b634e487b7160e01b5f52602260045260245ffd5b91607f16916117bd565b91908251928382525f5b848110611897575050825f602080949584010152601f8019910116010190565b602081830181015184830182015201611877565b600435906001600160a01b03821682036103b157565b602435906001600160a01b03821682036103b157565b600435906001600160401b03821682036103b157565b6001600160401b03811161175857601f01601f191660200190565b929192611914826118ed565b91611922604051938461177f565b8294818452818301116103b1578281602093845f960137010152565b9080601f830112156103b15781602061195993359101611908565b90565b60606003198201126103b157600435916001600160401b036024358181116103b1578361198b9160040161193e565b926044359182116103b1576119599160040161193e565b8051156119af5760200190565b634e487b7160e01b5f52603260045260245ffd5b908115611a66575b8015611a54575b602090606460018060a01b035f80516020611c738339815191525416935f60405195869485936303056db360e31b8552600485015260248401528160448401525af1908115610c04575f91611a25575090565b90506020813d602011611a4c575b81611a406020938361177f565b810103126103b1575190565b3d9150611a33565b506020611a5f611c1f565b90506119d2565b9050611a70611c1f565b906119cb565b9081518082526020808093019301915f5b828110611a95575050505090565b835185529381019392810192600101611a87565b908115611b1d575b8015611b0b575b602090606460018060a01b035f80516020611c738339815191525416935f604051958694859363022f65e760e31b8552600485015260248401528160448401525af1908115610c04575f91611a25575090565b506020611b16611c1f565b9050611ab8565b9050611b27611c1f565b90611ab1565b46600103611b3a57600190565b4662aa36a703611b4a5761271190565b617a694614611b57575f90565b5f1990565b7f9e7b61f58c47dc699ac88507c4f5bb9f121c03808c5676a8078fe583e4649700546001600160a01b0392908316803b156103b1575f92836044926040519687958694635ca4b5b160e11b865260048601521660248401525af18015610c0457611bc35750565b6117ed9061176c565b5f80516020611c7383398151915254604051639cd07acb60e01b8152600481019290925260056024830152602090829060449082905f906001600160a01b03165af1908115610c04575f91611a25575090565b5f80516020611c7383398151915254604051639cd07acb60e01b81525f60048201819052600560248301529091602091839160449183916001600160a01b03165af1908115610c04575f91611a2557509056fe9e7b61f58c47dc699ac88507c4f5bb9f121c03808c5676a8078fe583e4649701a2646970667358221220be474f66bccf039e3f4e9c0141e94c5b47d506ec648e8f69b670c3907683b80964736f6c63430008180033",
  "devdoc": {
    "author": "cristhedev (https://github.com/cris-the-dev)",
    "custom:security-contact": "tiennln.work@gmail.com",
    "details": "This contract acts as a decentralized escrow system for the ConfidentialFundraising platform. It manages encrypted ETH balances, handles fund locking for active campaigns, and enables privacy-preserving withdrawals through FHE-based balance verification. Key Features: - Encrypted balance tracking for all users - Campaign-specific fund locking mechanism - Decryption-based withdrawal authorization - Automatic balance permission management - Support for multiple simultaneous campaign locks per user Security Model: - Only the authorized campaign contract can lock/unlock/transfer funds - Users must decrypt their available balance before withdrawal - All encrypted operations use FHEVM for on-chain privacy",
    "kind": "dev",
    "methods": {
      "callbackDecryptAvailableBalance(uint256,bytes,bytes)": {
        "details": "DEPRECATED - Non-functional in v0.9. Use submitAvailableBalanceDecryption() instead"
      },
      "callbackDecryptMyContribution(uint256,bytes,bytes)": {
        "details": "DEPRECATED - Non-functional in v0.9. Use submitMyContributionDecryption() instead"
      },
      "callbackDecryptTotalRaised(uint256,bytes,bytes)": {
        "details": "DEPRECATED - Non-functional in v0.9. Use submitTotalRaisedDecryption() instead"
      },
      "deposit()": {
        "custom:emits": "Deposited",
        "details": "The deposited amount is encrypted on-chain and added to the user's balance. Resets any cached decrypted balance values. Grants necessary FHE permissions to the user and campaign contract."
      },
      "getAvailableBalance()": {
        "details": "The balance must be decrypted first by calling requestAvailableBalanceDecryption(). Returns the cached decrypted value if not expired.",
        "returns": {
          "_0": "The available balance in wei (total balance minus locked amounts)"
        }
      },
      "getAvailableBalanceStatus()": {
        "details": "Useful for checking if decryption is in progress or if cache is expired",
        "returns": {
          "availableAmount": "The cached available balance (0 if not decrypted)",
          "cacheExpiry": "The timestamp when the cached value expires",
          "status": "The current decryption status (NONE/PROCESSING/DECRYPTED)"
        }
      },
      "getEncryptedBalance()": {
        "details": "For user-side decryption. User must have been granted FHE permissions.",
        "returns": {
          "_0": "The encrypted total balance"
        }
      },
      "getEncryptedBalanceAndLocked()": {
        "details": "For user-side decryption. Returns both values so client can calculate available (balance - locked). User must have been granted FHE permissions.",
        "returns": {
          "balance": "The encrypted total balance",
          "locked": "The encrypted total locked amount"
        }
      },
      "getEncryptedTotalLocked()": {
        "details": "For user-side decryption. User must have been granted FHE permissions.",
        "returns": {
          "_0": "The encrypted total locked amount"
        }
      },
      "lockFunds(address,uint16,bytes32)": {
        "custom:emits": "FundsLocked",
        "details": "Called exclusively by the campaign contract when a user contributes. Operates entirely on encrypted values using FHE. If insufficient funds are available, safely locks 0 instead of reverting. Invalidates cached available balance.",
        "params": {
          "amount": "The encrypted amount to lock",
          "campaignId": "The ID of the campaign",
          "user": "The address of the contributor"
        }
      },
      "requestAvailableBalanceDecryption()": {
        "custom:emits": "WithdrawalDecryptionRequested",
        "details": "Calculates available balance as (total balance - total locked) and marks it for decryption. After calling this, use the frontend relayer SDK's publicDecrypt() to get cleartext + proof, then call submitAvailableBalanceDecryption() with the results."
      },
      "setCampaignContract(address)": {
        "details": "Can only be called once by the owner during initial setup. This address will have exclusive permission to lock, unlock, and transfer user funds.",
        "params": {
          "_campaignContract": "The address of the ConfidentialFundraising contract"
        }
      },
      "submitAvailableBalanceDecryption(uint64,bytes)": {
        "details": "Called by the user after obtaining cleartext + proof via publicDecrypt() from the relayer SDK. Verifies the proof and caches the decrypted value.",
        "params": {
          "cleartextAvailable": "The decrypted available balance amount (obtained from publicDecrypt)",
          "proof": "The cryptographic proof (obtained from publicDecrypt)"
        }
      },
      "transferLockedFunds(address,address,uint16)": {
        "custom:emits": "FundsTransferred",
        "details": "Called by the campaign contract when a campaign succeeds. Moves encrypted funds from the contributor's balance to the campaign owner's balance within the vault. Does not transfer actual ETH - funds remain in the vault.",
        "params": {
          "campaignId": "The ID of the successful campaign",
          "campaignOwner": "The address of the campaign owner",
          "user": "The address of the contributor"
        },
        "returns": {
          "_0": "The encrypted locked amount that was transferred"
        }
      },
      "unlockFunds(address,uint16)": {
        "custom:emits": "FundsUnlocked",
        "details": "Called by the campaign contract when a campaign is cancelled or fails to reach its target. Returns funds to the user's available balance without transferring ETH.",
        "params": {
          "campaignId": "The ID of the campaign",
          "user": "The address of the contributor"
        }
      },
      "withdraw(uint64)": {
        "custom:emits": "Withdrawn",
        "details": "Users must first decrypt their available balance. The decryption acts as authorization proof for the withdrawal. Resets the cached balance after withdrawal.",
        "params": {
          "amount": "The amount to withdraw in wei"
        }
      }
    },
    "title": "ShareVault",
    "version": 1
  },
  "userdoc": {
    "errors": {
      "InvalidKMSSignatures()": [
        {
          "notice": "Returned if the returned KMS signatures are not valid."
        }
      ],
      "ZamaProtocolUnsupported()": [
        {
          "notice": "Returned if the Zama protocol is not supported on the current chain"
        }
      ]
    },
    "events": {
      "PublicDecryptionVerified(bytes32[],bytes)": {
        "notice": "This event is emitted when public decryption has been successfully verified."
      }
    },
    "kind": "user",
    "methods": {
      "deposit()": {
        "notice": "Deposits ETH into the vault as an encrypted balance"
      },
      "getAvailableBalance()": {
        "notice": "Retrieves the user's decrypted available balance"
      },
      "getAvailableBalanceStatus()": {
        "notice": "Retrieves the decryption status and cached available balance"
      },
      "getEncryptedBalance()": {
        "notice": "Gets the encrypted total balance for a user"
      },
      "getEncryptedBalanceAndLocked()": {
        "notice": "Gets the encrypted balance and locked amount for a user"
      },
      "getEncryptedTotalLocked()": {
        "notice": "Gets the encrypted total locked amount for a user"
      },
      "lockFunds(address,uint16,bytes32)": {
        "notice": "Locks encrypted funds for a specific campaign"
      },
      "requestAvailableBalanceDecryption()": {
        "notice": "Marks the user's available balance as publicly decryptable (v0.9 self-relaying)"
      },
      "setCampaignContract(address)": {
        "notice": "Sets the authorized campaign contract address"
      },
      "submitAvailableBalanceDecryption(uint64,bytes)": {
        "notice": "Submits and verifies the decrypted available balance (v0.9 self-relaying)"
      },
      "transferLockedFunds(address,address,uint16)": {
        "notice": "Transfers locked funds from contributor to campaign owner"
      },
      "unlockFunds(address,uint16)": {
        "notice": "Unlocks funds previously locked for a campaign"
      },
      "withdraw(uint64)": {
        "notice": "Withdraws unlocked funds from the vault"
      }
    },
    "notice": "Secure vault for managing encrypted user balances and campaign fund locks",
    "version": 1
  },
  "storageLayout": {
    "storage": [
      {
        "astId": 43444,
        "contract": "contracts/ShareVault.sol:ShareVault",
        "label": "cacheTimeout",
        "offset": 0,
        "slot": "0",
        "type": "t_uint256"
      },
      {
        "astId": 43449,
        "contract": "contracts/ShareVault.sol:ShareVault",
        "label": "campaigns",
        "offset": 0,
        "slot": "1",
        "type": "t_mapping(t_uint16,t_struct(Campaign)43598_storage)"
      },
      {
        "astId": 43455,
        "contract": "contracts/ShareVault.sol:ShareVault",
        "label": "hasClaimed",
        "offset": 0,
        "slot": "2",
        "type": "t_mapping(t_uint16,t_mapping(t_address,t_bool))"
      },
      {
        "astId": 43462,
        "contract": "contracts/ShareVault.sol:ShareVault",
        "label": "encryptedContributions",
        "offset": 0,
        "slot": "3",
        "type": "t_mapping(t_uint16,t_mapping(t_address,t_userDefinedValueType(euint64)43639))"
      },
      {
        "astId": 43469,
        "contract": "contracts/ShareVault.sol:ShareVault",
        "label": "decryptedContributions",
        "offset": 0,
        "slot": "4",
        "type": "t_mapping(t_uint16,t_mapping(t_address,t_struct(Uint64ResultWithExp)43574_storage))"
      },
      {
        "astId": 43474,
        "contract": "contracts/ShareVault.sol:ShareVault",
        "label": "decryptedTotalRaised",
        "offset": 0,
        "slot": "5",
        "type": "t_mapping(t_uint16,t_struct(Uint64ResultWithExp)43574_storage)"
      },
      {
        "astId": 43478,
        "contract": "contracts/ShareVault.sol:ShareVault",
        "label": "decryptTotalRaisedRequest",
        "offset": 0,
        "slot": "6",
        "type": "t_mapping(t_uint256,t_uint16)"
      },
      {
        "astId": 43483,
        "contract": "contracts/ShareVault.sol:ShareVault",
        "label": "decryptTotalRaisedStatus",
        "offset": 0,
        "slot": "7",
        "type": "t_mapping(t_uint16,t_enum(DecryptStatus)43569)"
      },
      {
        "astId": 43488,
        "contract": "contracts/ShareVault.sol:ShareVault",
        "label": "decryptMyContributionRequest",
        "offset": 0,
        "slot": "8",
        "type": "t_mapping(t_uint256,t_struct(DecryptUserContributionRequest)43603_storage)"
      },
      {
        "astId": 43495,
        "contract": "contracts/ShareVault.sol:ShareVault",
        "label": "decryptMyContributionStatus",
        "offset": 0,
        "slot": "9",
        "type": "t_mapping(t_uint16,t_mapping(t_address,t_enum(DecryptStatus)43569))"
      },
      {
        "astId": 43497,
        "contract": "contracts/ShareVault.sol:ShareVault",
        "label": "campaignCount",
        "offset": 0,
        "slot": "10",
        "type": "t_uint16"
      },
      {
        "astId": 43502,
        "contract": "contracts/ShareVault.sol:ShareVault",
        "label": "campaignContributors",
        "offset": 0,
        "slot": "11",
        "type": "t_mapping(t_uint16,t_array(t_address)dyn_storage)"
      },
      {
        "astId": 43508,
        "contract": "contracts/ShareVault.sol:ShareVault",
        "label": "hasContributed",
        "offset": 0,
        "slot": "12",
        "type": "t_mapping(t_uint16,t_mapping(t_address,t_bool))"
      },
      {
        "astId": 43514,
        "contract": "contracts/ShareVault.sol:ShareVault",
        "label": "hasClaimedTokens",
        "offset": 0,
        "slot": "13",
        "type": "t_mapping(t_uint16,t_mapping(t_address,t_bool))"
      },
      {
        "astId": 43524,
        "contract": "contracts/ShareVault.sol:ShareVault",
        "label": "encryptedBalances",
        "offset": 0,
        "slot": "14",
        "type": "t_mapping(t_address,t_userDefinedValueType(euint64)43639)"
      },
      {
        "astId": 43531,
        "contract": "contracts/ShareVault.sol:ShareVault",
        "label": "lockedAmounts",
        "offset": 0,
        "slot": "15",
        "type": "t_mapping(t_address,t_mapping(t_uint16,t_userDefinedValueType(euint64)43639))"
      },
      {
        "astId": 43536,
        "contract": "contracts/ShareVault.sol:ShareVault",
        "label": "totalLocked",
        "offset": 0,
        "slot": "16",
        "type": "t_mapping(t_address,t_userDefinedValueType(euint64)43639)"
      },
      {
        "astId": 43541,
        "contract": "contracts/ShareVault.sol:ShareVault",
        "label": "availableBalanceStatus",
        "offset": 0,
        "slot": "17",
        "type": "t_mapping(t_address,t_enum(DecryptStatus)43569)"
      },
      {
        "astId": 43546,
        "contract": "contracts/ShareVault.sol:ShareVault",
        "label": "decryptedAvailableBalance",
        "offset": 0,
        "slot": "18",
        "type": "t_mapping(t_address,t_struct(Uint64ResultWithExp)43574_storage)"
      },
      {
        "astId": 43551,
        "contract": "contracts/ShareVault.sol:ShareVault",
        "label": "withdrawalRequests",
        "offset": 0,
        "slot": "19",
        "type": "t_mapping(t_uint256,t_struct(WithdrawalRequest)43610_storage)"
      },
      {
        "astId": 43556,
        "contract": "contracts/ShareVault.sol:ShareVault",
        "label": "pendingAvailableBalance",
        "offset": 0,
        "slot": "20",
        "type": "t_mapping(t_address,t_userDefinedValueType(euint64)43639)"
      },
      {
        "astId": 43558,
        "contract": "contracts/ShareVault.sol:ShareVault",
        "label": "campaignContract",
        "offset": 0,
        "slot": "21",
        "type": "t_address"
      },
      {
        "astId": 41673,
        "contract": "contracts/ShareVault.sol:ShareVault",
        "label": "owner",
        "offset": 0,
        "slot": "22",
        "type": "t_address"
      }
    ],
    "types": {
      "t_address": {
        "encoding": "inplace",
        "label": "address",
        "numberOfBytes": "20"
      },
      "t_array(t_address)dyn_storage": {
        "base": "t_address",
        "encoding": "dynamic_array",
        "label": "address[]",
        "numberOfBytes": "32"
      },
      "t_bool": {
        "encoding": "inplace",
        "label": "bool",
        "numberOfBytes": "1"
      },
      "t_enum(DecryptStatus)43569": {
        "encoding": "inplace",
        "label": "enum CommonStruct.DecryptStatus",
        "numberOfBytes": "1"
      },
      "t_mapping(t_address,t_bool)": {
        "encoding": "mapping",
        "key": "t_address",
        "label": "mapping(address => bool)",
        "numberOfBytes": "32",
        "value": "t_bool"
      },
      "t_mapping(t_address,t_enum(DecryptStatus)43569)": {
        "encoding": "mapping",
        "key": "t_address",
        "label": "mapping(address => enum CommonStruct.DecryptStatus)",
        "numberOfBytes": "32",
        "value": "t_enum(DecryptStatus)43569"
      },
      "t_mapping(t_address,t_mapping(t_uint16,t_userDefinedValueType(euint64)43639))": {
        "encoding": "mapping",
        "key": "t_address",
        "label": "mapping(address => mapping(uint16 => euint64))",
        "numberOfBytes": "32",
        "value": "t_mapping(t_uint16,t_userDefinedValueType(euint64)43639)"
      },
      "t_mapping(t_address,t_struct(Uint64ResultWithExp)43574_storage)": {
        "encoding": "mapping",
        "key": "t_address",
        "label": "mapping(address => struct CommonStruct.Uint64ResultWithExp)",
        "numberOfBytes": "32",
        "value": "t_struct(Uint64ResultWithExp)43574_storage"
      },
      "t_mapping(t_address,t_userDefinedValueType(euint64)43639)": {
        "encoding": "mapping",
        "key": "t_address",
        "label": "mapping(address => euint64)",
        "numberOfBytes": "32",
        "value": "t_userDefinedValueType(euint64)43639"
      },
      "t_mapping(t_uint16,t_array(t_address)dyn_storage)": {
        "encoding": "mapping",
        "key": "t_uint16",
        "label": "mapping(uint16 => address[])",
        "numberOfBytes": "32",
        "value": "t_array(t_address)dyn_storage"
      },
      "t_mapping(t_uint16,t_enum(DecryptStatus)43569)": {
        "encoding": "mapping",
        "key": "t_uint16",
        "label": "mapping(uint16 => enum CommonStruct.DecryptStatus)",
        "numberOfBytes": "32",
        "value": "t_enum(DecryptStatus)43569"
      },
      "t_mapping(t_uint16,t_mapping(t_address,t_bool))": {
        "encoding": "mapping",
        "key": "t_uint16",
        "label": "mapping(uint16 => mapping(address => bool))",
        "numberOfBytes": "32",
        "value": "t_mapping(t_address,t_bool)"
      },
      "t_mapping(t_uint16,t_mapping(t_address,t_enum(DecryptStatus)43569))": {
        "encoding": "mapping",
        "key": "t_uint16",
        "label": "mapping(uint16 => mapping(address => enum CommonStruct.DecryptStatus))",
        "numberOfBytes": "32",
        "value": "t_mapping(t_address,t_enum(DecryptStatus)43569)"
      },
      "t_mapping(t_uint16,t_mapping(t_address,t_struct(Uint64ResultWithExp)43574_storage))": {
        "encoding": "mapping",
        "key": "t_uint16",
        "label": "mapping(uint16 => mapping(address => struct CommonStruct.Uint64ResultWithExp))",
        "numberOfBytes": "32",
        "value": "t_mapping(t_address,t_struct(Uint64ResultWithExp)43574_storage)"
      },
      "t_mapping(t_uint16,t_mapping(t_address,t_userDefinedValueType(euint64)43639))": {
        "encoding": "mapping",
        "key": "t_uint16",
        "label": "mapping(uint16 => mapping(address => euint64))",
        "numberOfBytes": "32",
        "value": "t_mapping(t_address,t_userDefinedValueType(euint64)43639)"
      },
      "t_mapping(t_uint16,t_struct(Campaign)43598_storage)": {
        "encoding": "mapping",
        "key": "t_uint16",
        "label": "mapping(uint16 => struct FundraisingStruct.Campaign)",
        "numberOfBytes": "32",
        "value": "t_struct(Campaign)43598_storage"
      },
      "t_mapping(t_uint16,t_struct(Uint64ResultWithExp)43574_storage)": {
        "encoding": "mapping",
        "key": "t_uint16",
        "label": "mapping(uint16 => struct CommonStruct.Uint64ResultWithExp)",
        "numberOfBytes": "32",
        "value": "t_struct(Uint64ResultWithExp)43574_storage"
      },
      "t_mapping(t_uint16,t_userDefinedValueType(euint64)43639)": {
        "encoding": "mapping",
        "key": "t_uint16",
        "label": "mapping(uint16 => euint64)",
        "numberOfBytes": "32",
        "value": "t_userDefinedValueType(euint64)43639"
      },
      "t_mapping(t_uint256,t_struct(DecryptUserContributionRequest)43603_storage)": {
        "encoding": "mapping",
        "key": "t_uint256",
        "label": "mapping(uint256 => struct FundraisingStruct.DecryptUserContributionRequest)",
        "numberOfBytes": "32",
        "value": "t_struct(DecryptUserContributionRequest)43603_storage"
      },
      "t_mapping(t_uint256,t_struct(WithdrawalRequest)43610_storage)": {
        "encoding": "mapping",
        "key": "t_uint256",
        "label": "mapping(uint256 => struct ShareVaultStruct.WithdrawalRequest)",
        "numberOfBytes": "32",
        "value": "t_struct(WithdrawalRequest)43610_storage"
      },
      "t_mapping(t_uint256,t_uint16)": {
        "encoding": "mapping",
        "key": "t_uint256",
        "label": "mapping(uint256 => uint16)",
        "numberOfBytes": "32",
        "value": "t_uint16"
      },
      "t_string_storage": {
        "encoding": "bytes",
        "label": "string",
        "numberOfBytes": "32"
      },
      "t_struct(Campaign)43598_storage": {
        "encoding": "inplace",
        "label": "struct FundraisingStruct.Campaign",
        "members": [
          {
            "astId": 43580,
            "contract": "contracts/ShareVault.sol:ShareVault",
            "label": "owner",
            "offset": 0,
            "slot": "0",
            "type": "t_address"
          },
          {
            "astId": 43582,
            "contract": "contracts/ShareVault.sol:ShareVault",
            "label": "title",
            "offset": 0,
            "slot": "1",
            "type": "t_string_storage"
          },
          {
            "astId": 43584,
            "contract": "contracts/ShareVault.sol:ShareVault",
            "label": "description",
            "offset": 0,
            "slot": "2",
            "type": "t_string_storage"
          },
          {
            "astId": 43587,
            "contract": "contracts/ShareVault.sol:ShareVault",
            "label": "totalRaised",
            "offset": 0,
            "slot": "3",
            "type": "t_userDefinedValueType(euint64)43639"
          },
          {
            "astId": 43589,
            "contract": "contracts/ShareVault.sol:ShareVault",
            "label": "targetAmount",
            "offset": 0,
            "slot": "4",
            "type": "t_uint64"
          },
          {
            "astId": 43591,
            "contract": "contracts/ShareVault.sol:ShareVault",
            "label": "deadline",
            "offset": 0,
            "slot": "5",
            "type": "t_uint256"
          },
          {
            "astId": 43593,
            "contract": "contracts/ShareVault.sol:ShareVault",
            "label": "finalized",
            "offset": 0,
            "slot": "6",
            "type": "t_bool"
          },
          {
            "astId": 43595,
            "contract": "contracts/ShareVault.sol:ShareVault",
            "label": "cancelled",
            "offset": 1,
            "slot": "6",
            "type": "t_bool"
          },
          {
            "astId": 43597,
            "contract": "contracts/ShareVault.sol:ShareVault",
            "label": "tokenAddress",
            "offset": 2,
            "slot": "6",
            "type": "t_address"
          }
        ],
        "numberOfBytes": "224"
      },
      "t_struct(DecryptUserContributionRequest)43603_storage": {
        "encoding": "inplace",
        "label": "struct FundraisingStruct.DecryptUserContributionRequest",
        "members": [
          {
            "astId": 43600,
            "contract": "contracts/ShareVault.sol:ShareVault",
            "label": "userAddress",
            "offset": 0,
            "slot": "0",
            "type": "t_address"
          },
          {
            "astId": 43602,
            "contract": "contracts/ShareVault.sol:ShareVault",
            "label": "campaignId",
            "offset": 20,
            "slot": "0",
            "type": "t_uint16"
          }
        ],
        "numberOfBytes": "32"
      },
      "t_struct(Uint64ResultWithExp)43574_storage": {
        "encoding": "inplace",
        "label": "struct CommonStruct.Uint64ResultWithExp",
        "members": [
          {
            "astId": 43571,
            "contract": "contracts/ShareVault.sol:ShareVault",
            "label": "data",
            "offset": 0,
            "slot": "0",
            "type": "t_uint64"
          },
          {
            "astId": 43573,
            "contract": "contracts/ShareVault.sol:ShareVault",
            "label": "exp",
            "offset": 0,
            "slot": "1",
            "type": "t_uint256"
          }
        ],
        "numberOfBytes": "64"
      },
      "t_struct(WithdrawalRequest)43610_storage": {
        "encoding": "inplace",
        "label": "struct ShareVaultStruct.WithdrawalRequest",
        "members": [
          {
            "astId": 43609,
            "contract": "contracts/ShareVault.sol:ShareVault",
            "label": "userAddress",
            "offset": 0,
            "slot": "0",
            "type": "t_address"
          }
        ],
        "numberOfBytes": "32"
      },
      "t_uint16": {
        "encoding": "inplace",
        "label": "uint16",
        "numberOfBytes": "2"
      },
      "t_uint256": {
        "encoding": "inplace",
        "label": "uint256",
        "numberOfBytes": "32"
      },
      "t_uint64": {
        "encoding": "inplace",
        "label": "uint64",
        "numberOfBytes": "8"
      },
      "t_userDefinedValueType(euint64)43639": {
        "encoding": "inplace",
        "label": "euint64",
        "numberOfBytes": "32"
      }
    }
  }
}